:020000040800F2
:10000000F81D002099010008CB0E0008D10D000852
:10001000C90E000829020008911000080000000025
:1000200000000000000000000000000001010008C6
:100030002B0200080000000045010008E50E000842
:10004000B3010008B3010008B3010008B3010008C0
:10005000B3010008B3010008B3010008B3010008B0
:10006000B3010008B3010008B3010008B3010008A0
:10007000B3010008B3010008B3010008B301000890
:10008000B3010008B3010008B3010008B301000880
:10009000B3010008B3010008B3010008B301000870
:1000A000B3010008B3010008B3010008B301000860
:1000B000B3010008B3010008610F0008B301000894
:1000C000B3010008B3010008B3010008B301000840
:1000D000B3010008B3010008B3010008B301000830
:1000E000B3010008B3010008B3010008DFF80CD029
:1000F00000F088F800480047D1100008F81D0020E3
:10010000224B19680868B0E8F00F80F30988BFF344
:100110006F8F4FF0000080F311884EF00D0E704786
:100120000000000006480068006880F3088862B696
:1001300061B6BFF34F8FBFF36F8F00DF00BF00BF0B
:1001400008ED00E0EFF30980BFF36F8F0F4B1A68E3
:1001500020E9F00F106008B54FF0500080F31188CF
:10016000BFF34F8FBFF36F8F01F0BAFE4FF0000067
:1001700080F31188BDE8084019680868B0E8F00FFE
:1001800080F30988BFF36F8F704700BF2000002005
:10019000EFF3058070470000064880470648004797
:1001A000FEE7FEE7FEE7FEE7FEE7FEE7FEE7FEE727
:1001B000FEE7FEE75F0F0008ED00000840EA0103DC
:1001C0009B0703D009E008C9121F08C0042AFAD20D
:1001D00003E011F8013B00F8013B521EF9D27047D1
:1001E000D2B201E000F8012B491EFBD27047002279
:1001F000F6E710B513460A4604461946FFF7F0FF26
:10020000204610BD064C074D06E0E06840F00103B3
:1002100094E8070098471034AC42F6D3FFF76AFF22
:10022000FC2900081C2A0008FEE770477047000000
:100230002DE9F84FDFF8B891002409F1040A0AF11A
:10024000040B23460F270BF1040EC9E00125A5403E
:100250002A40AA427DD1674ED1F804C0ACEB060813
:10026000B44532D014DCBCF1030F3AD009DCBCF148
:10027000000F2AD0BCF1010F1CD0BCF1020F31D10C
:100280001DE0BCF1110F17D0BCF1120F2AD119E0FB
:10029000B8F5881F19D006DCB8F5803F15D0B8F541
:1002A000801F1FD111E0B8F5001F0ED0B8F5041F54
:1002B00018D10AE0CB6815E0CB681B1D12E0CB68B3
:1002C00008330FE0CB680C330CE08B682BB1012BAB
:1002D0004FF0080303D0456104E0042302E0056108
:1002E00000E00023FF2A01D8064601E000F10406E1
:1002F0004FEA840501D9A5F12005D6F8008007FA58
:1003000005FC28EA0C0803FA05F548EA0508C6F8D2
:1003100000804D68ED0062D5374DAE6946F00106AC
:10032000AE61AD6924F0030605F001050095334D7B
:1003300006EB050CDCF80850A607360F07FA06F89E
:1003400025EA0805DFF8B880404503D14FF00008E2
:1003500017E044E0DFF8AC80404502D14FF00108DF
:100360000FE0DFF8A480404502D14FF0020808E01A
:10037000DFF89880404502D14FF0030801E04FF0CC
:10038000040808FA06F848EA0508CCF808804D6821
:10039000D9F80060ED034D4601D5164300E09643C1
:1003A0002E604D68DAF80060AD03554601D516435E
:1003B00000E096432E604D68DBF80060ED025D467C
:1003C00001D5164300E096432E604D68DEF80060CC
:1003D000AD02754601D5164300E096432E60641CBD
:1003E0000D682A46E5407FF431AFBDE8F88F000084
:1003F0000004014000001110001002400000014004
:1004000000080140000C01400010014000140140B0
:100410000AB1016170470904FBE7000001488068E8
:1004200070470000100000200248816802781144E3
:100430008160704710000020074810B5016841F046
:1004400010010160032000F08FF8002000F006F892
:1004500000F03EF8002010BD0020024000B501462B
:1004600087B000221E2000F05FF81E2000F04EF83A
:100470001348C16941F00401C161C06905A900F0D8
:1004800004000690684600F017F900F035F90D49B0
:100490004000B0FBF1F10D480B4A491E026041607B
:1004A00040F2E7320021C0E90321816000F00CFB3B
:1004B00010B1012007B000BD044800F033FBF9E79C
:1004C0000010024040420F0000080040DC00002005
:1004D0000C4808B5816941F001018161816901F031
:1004E00001010091C16941F08051C161C06900F012
:1004F000805000900448416821F0E06141F00071B3
:10050000416008BD0010024000000140002809DBE6
:1005100000F01F02012191404009800000F1E0201D
:10052000C0F8001170470000F0B40E4B1B680C4679
:10053000C3F30223C3F10705042D00D90425191DB7
:10054000072901D2002300E0DB1E012606FA05F18F
:10055000491E214099409E40761E16403143F0BC12
:1005600000F097BD0CED00E0064900F007020868B6
:100570004FF6FF03184040EA0220034A1043086088
:10058000704700000CED00E00000FA052DE9F0478F
:100590000F46050061D0434E306800F00700B842B6
:1005A00009D2306820F0070038433060306800F02E
:1005B0000700B84251D128683B4C810712D540074B
:1005C00003D5606840F4E06060602878000703D5D8
:1005D000606840F4605060606068A96820F0F000D6
:1005E000084360602878C00728D06868012810D0C8
:1005F0002168022810D0890700292EDA616821F0CD
:10060000030101436160FFF709FF804641F2883929
:100610000DE021688903EFE78901EDE7FFF7FEFEB2
:10062000A0EB0801494502D90320BDE8F0876068C6
:10063000696800F00C00B0EB810FEFD1306800F07A
:100640000700B8420BD9306820F00700384330600B
:10065000306800F00700B84201D00120E5E72878B3
:10066000400705D56068E96820F4E06008436060F1
:100670002878000706D56068296920F4605040EAB0
:10068000C100606000F058F86168084AC1F30311C6
:10069000515CC8400649086006480068FFF7DEFE66
:1006A0000020C2E70020024000100240B4290008E8
:1006B0001C000020140000200F2202600C4A536826
:1006C00003F003034360536803F0F003836053684F
:1006D00003F4E063C36052684FF4E06303EAD202BC
:1006E00002610448006800F00700086070470000DD
:1006F0000010024000200240044805490068496893
:10070000044AC1F30221515CC84070471C0000201C
:1007100000100240C42900080448054900684968DF
:10072000044AC1F3C221515CC84070471C0000203C
:1007300000100240C429000812A185B00FC98DE83D
:100740000F0014A0144A006804905168134801F087
:100750000C03042B10D0082B0ED1C1F38343C90323
:100760001DF803000AD5516804AAC1F34041515C49
:100770000A4A5043B0FBF1F005B0704708494843BE
:10078000FAE7000002030405060708090A0B0C0D2E
:100790000E0F1010010200000010024000127A003B
:1007A00000093D002DE9F84F040070D02078C04DBD
:1007B000C00749D06868C0F38100012807D0686885
:1007C000C0F38100022809D16868C00306D52868F3
:1007D000800339D560680028E7D035E06068B0F55F
:1007E000803F0BD010B1B0F5A02F11D0286820F4B5
:1007F00080302860286820F4802002E0286840F4D7
:1008000080302860606890B1FFF708FE06460AE075
:10081000286840F480202860F0E700BFFFF7FEFD65
:10082000801B642873D828688003F7D50CE0FFF795
:10083000F5FD064605E000BFFFF7F0FD801B6428CC
:10084000F0D828688003F7D420789A4E80074FF0BC
:1008500001094FF0000839D5686810F00C0F07D077
:100860006868C0F38100022809D16868C00306D413
:100870002868800714D52069012808D110E0206974
:10088000B0B1C6F80090FFF7C9FD074605E00AE1E0
:10089000FFF7C4FDC01B0228C4D828688007F7D51D
:1008A0002868616920F0F80040EAC10028600DE086
:1008B000C6F80080FFF7B2FD074604E0FFF7AEFD83
:1008C000C01B022823D828688007F7D420780007A7
:1008D0002CD57948A169D9B1C0F80090FFF79EFDE9
:1008E000074604E0FFF79AFDC01B02280FD8686A8C
:1008F0008007F7D571484FF4FA510068B0FBF1F06A
:10090000009000BF0098411E0091FAD20EE080E0F6
:10091000C0F80080FFF782FD074604E0FFF77EFD88
:10092000C01B022875D8686A8007F7D42078400772
:1009300060D5E8690027C00008D4E86940F080501D
:10094000E861E869012700F0805000905C48016888
:10095000C90513D40168834641F480710160FFF733
:100960005DFD824606E000BFFFF758FDA0EB0A00E0
:1009700064284ED8DBF80000C005F5D5E0680128F2
:100980000AD008B1052813D0286A20F00100286297
:10099000286A20F0040002E0286A40F00100286282
:1009A000E06841F2883B98B1FFF738FD82460BE0E2
:1009B000286A40F004002862EEE700BFFFF72EFD32
:1009C000A0EB0A0159455AD8286A8007F6D50CE0F1
:1009D000FFF724FD824605E0FFF720FDA0EB0A01AA
:1009E00059454CD8286A8007F6D41FB1E86920F031
:1009F0008050E861E06988B36968C1F38101022928
:100A000044D00228C6F8608004D0FFF707FD0446F2
:100A100038E034E0FFF702FD074604E0FFF7FEFC94
:100A2000C01B02282BD828688001F7D4206AB0F5B3
:100A3000803F05D16868A16820F4003008436860F1
:100A4000D4E908010843696821F474110843686017
:100A5000C6F86090FFF7E2FC044606E025E000BF20
:100A6000FFF7DCFC001B022809D828688001F7D5B5
:100A70001BE000BFFFF7D2FC001B022802D90320B5
:100A8000BDE8F88F28688001F4D40EE00128F7D083
:100A90006868226A00F48031914204D1616A00F4EE
:100AA0007010884201D00120EAE70020E8E700004A
:100AB0000010024000004242800442421C0000201C
:100AC000007000407047704710B5040003D094F8E0
:100AD0003D0010B107E0012010BD002084F83C006B
:100AE000204600F01EF8022084F83D00211D2068F9
:100AF00000F03CFA012084F8460084F83E0084F8B7
:100B00003F0084F8400084F8410084F8420084F8F3
:100B1000430084F8440084F8450084F83D00002038
:100B200010BD704790F83D10012901D00120704799
:100B3000022180F83D100168CA6842F00102CA60D3
:100B400000680B49884208D0B0F1804F05D00949B0
:100B5000884202D00849884204D1816801F0070127
:100B6000062903D0016841F00101016000207047AF
:100B7000002C01400004004000080040704770B5A0
:100B80000446006801694FF00005C943890715D480
:100B9000C168C943890711D4E91E0161012020778A
:100BA000206880698007204602D0FFF7E7FF04E055
:100BB00000F098F8204600F096F825772068016943
:100BC000C943490717D4C168C943490713D46FF013
:100BD00004010161022020772068806910F4407FC1
:100BE000204602D0FFF7CAFF04E000F07BF8204661
:100BF00000F079F8257720680169C943090716D400
:100C0000C168C943090712D46FF0080101610420CB
:100C100020772068C0698007204602D0FFF7AEFF2A
:100C200004E000F05FF8204600F05DF825772068CA
:100C30000169C943C90617D4C168C943C90613D499
:100C40006FF010010161082020772068C06910F45E
:100C5000407F204602D0FFF791FF04E000F042F809
:100C6000204600F040F8257720680169C943C9078C
:100C700008D1C168C943C90704D1891E0161204652
:100C800000F032F820680169C943090609D4C16837
:100C9000C943090605D46FF0800101612046FFF7C2
:100CA00011FF20680169C943490609D4C168C943D5
:100CB000490605D46FF040010161204600F01EF89E
:100CC00020680169C94389060BD4C168C9438906F4
:100CD00007D46FF0200101612046BDE87040FFF7A6
:100CE000F2BE70BD7047704700680349884201D169
:100CF000FFF79ABB7047000000080040704770B5CE
:100D0000040004D094F83D00002510B106E0012055
:100D100070BD84F83C50204600F022F8242084F86E
:100D20003D002068C16821F40051C160204600F0F8
:100D300053F92068016921F49041016120684169FB
:100D400021F02A0141612068C16841F40051C1606D
:100D50002564202084F83D0084F83E00002070BD0A
:100D600030B585B000240094019402940394006887
:100D70001449884224D11448C16941F48021C161D9
:100D8000C16901F480210491816941F00801816108
:100D900080690E4D00F0080004904FF480600090D0
:100DA000022001900320039069462846FFF740FA8D
:100DB000E814CDE90004694628460294FFF738FAA2
:100DC00005B030BD0048004000100240000C01405A
:100DD000FEE7000010B50D4800F0E0F90C4C0B4A9E
:100DE0000021E0606C3A0B4800F018FA074A2060D6
:100DF000483A0021084800F011FA044A6060243A99
:100E00000021064800F00AFAA06010BDA4290008DD
:100E100000000020CD0E0008D50E0008DD0E0008F1
:100E200030B585B0002418480094019402940394CE
:100E3000816941F020018161816901F02001049103
:100E4000816941F008018161816901F00801049123
:100E5000816941F00401816180690C4D00F004005A
:100E60000490002218212846FFF7D2FA182000909B
:100E70000120CDE901040220039069462846FFF7CE
:100E8000D7F905B030BD000000100240000C014051
:100E90000C4810B50A4901604FF4E131416000216E
:100EA00081600C22C160C0E904128161C161FFF759
:100EB00026FF002803D0BDE81040FFF7B7B910BDEA
:100EC0000048004098000020FEE77047012000F035
:100ED0000FF9FBE7012000F00BF9FBE7012000F020
:100EE00007F9FBE710B5502080F31188BFF34F8F4F
:100EF000BFF36F8F01F07EFB18B104494FF08050B3
:100F00000860002080F3118810BD000004ED00E0AF
:100F100030B58FB028216846FFF769F914210AA877
:100F2000FFF765F901210804CDE9001000240294BF
:100F300002250491CDE907504FF4E010099068466E
:100F4000FFF730FC0F20CDE90A056802CDE90C401F
:100F500002210AA80E94FFF719FB0FB030BD7047AD
:100F60000148FFF70CBE0000DC000020F0B502686D
:100F7000164B174C174D4FF08047984205D0B8429A
:100F800003D0A04201D0A84203D122F070064A68E3
:100F90003243984205D0B84203D0A04201D0A842C3
:100FA00003D122F44074CA6822434C6922F08002C3
:100FB000224302608A68C2620A688262984201D152
:100FC0000969016301214161F0BD0000002C01406D
:100FD000000400400008004070B504460068016944
:100FE000E26821F44051114301612169A06808437E
:100FF000616908432168CA6841F20C639A4302435D
:10100000CA6020684169A26921F4407111434161BD
:101010001E492068884202D1FFF77EFB01E0FFF7FE
:101020006BFB00EBC00101EB0012606864218000E3
:10103000B2FBF0F3B3FBF1F36FF018067343B2FBAE
:10104000F0F5B2FBF0F605EB8305322303EB051553
:10105000B5FBF1F5B6FBF1F605F0F00505EB06156D
:10106000B2FBF0F6B2FBF0F0B0FBF1F06FF018025B
:10107000504306EB800003EB0010B0FBF1F0216859
:1010800000F00F002844886070BD00000038014067
:10109000FEE70907090E002804DB00F1E02080F8D4
:1010A0000014704700F00F0000F1E02080F8141DDC
:1010B000704702E008C8121F08C1002AFAD1704721
:1010C0007047002001E001C1121F002AFBD17047C8
:1010D000FFF7B2F9FFF71CFFFFF7A2FEFFF7D8FEFC
:1010E00000F020F8FFF776FE00F038F8FEE7000089
:1010F00010B5EFF3058149B9EFF3108131B9084913
:101100000968022905D1EFF3118111B16FF00504CF
:1011100003E0002408B100F02FFE204610BD0000BF
:1011200070000020EFF3058058B9EFF3108040B94C
:1011300009490868022801D030B109E0EFF31180B5
:1011400030B16FF005007047012008600020704743
:101150004FF0FF30704700007000002010B5EFF333
:10116000058060B9EFF3108048B90B490868022880
:1011700002D0012806D00BE0EFF3118040B16FF0F0
:10118000050010BD0220086000F05EFE002010BDCA
:101190004FF0FF3010BD00007000002070B5054614
:1011A0004FF00004EFF30580A0BBEFF3108088BB85
:1011B00019480068022802D1EFF3118050BB0DB12D
:1011C000686800E00020C10701D0012600E0002689
:1011D00000071FD46DB1D5E9021021B1502819D3F1
:1011E0001EB1042002E020B114E0012000F009FF4C
:1011F00005E00EB1042000E0012000F0F7FE04003D
:1012000008D00DB1296800E0002100F07FFD0EB18B
:1012100044F00104204670BD70000020F0B585B098
:101220004FEA01034FF00004EFF305810394A1BBE3
:10123000EFF3108189BB21490968022902D1EFF33C
:10124000118151BB48B3802618218DF8104004ADA0
:1012500042B3176807B13D4697691FB139467F1EF3
:10126000382F02D21779FF0702D0002005B0F0BD59
:10127000576907B1BE08D2F808C0BCF1000F0DD005
:10128000D4685C2C18D312693AB137B18DE80610D6
:101290003246294601F06FF903900DE0D7685FB937
:1012A00012694AB903AACDE90012B2B2294601F087
:1012B00035F9012800D003940398D7E77000002087
:1012C0002DE9F041134C0F46054666692068001D64
:1012D00000F022FC681C07D137B12168BDE8F0415D
:1012E0000D48091D00F068BC20683544B5424560D2
:1012F000216805D2A068BDE8F041091D00F044BC9A
:101300006068091D00F040FC206B854200D2256317
:10131000BDE8F08120000020140600202DE9F041F6
:10132000054600F055FC2D4C2069401C20612068CA
:101330002B4F10B1E06930B32BE025602069012804
:1013400027D1002606EB860007EB800000F00EFC9C
:10135000761C382EF6D3234800F008FC21481430C0
:1013600000F004FC1F48283000F000FC1D483C3011
:1013700000F0FCFB1B48503000F0F8FB194860609F
:101380001430A06005E02068E96AC06A884200D88D
:101390002560E06A401CE0626864E86AA1698842EE
:1013A00000D9A06100EB800007EB8000291D00F050
:1013B00003FC00F02DFCE06900280CD02068E96AED
:1013C000C06A884207D208494FF080500860BFF3D6
:1013D0004F8FBFF36F8FBDE8F08100002000002029
:1013E00064010020C405002004ED00E038B500F0E1
:1013F000EFFB104CA068C8B90F4800F0B7FB0E48CF
:10140000143000F0B3FB0C482060143060600A4BCD
:1014100000202833009003F1500210210A2000F030
:1014200021FEA06010B105A100F070FCBDE83840BD
:1014300000F0EEBB5C00002028060020546D7251C5
:101440000000000030B4026C0B46002A0BD0C168CB
:101450001144C1604468A14201D30168C16030BC3D
:101460001846FEF7ABBE30BC70472DE9F041856BE6
:10147000174604460026026C82B1C7B1E068FEF749
:101480009DFEE168206C091AE1602268914202D257
:101490006168081AE060022F16D017E02068A8B92A
:1014A000606801F00BF90646002060600EE0A0685D
:1014B000FEF784FE216CA0680844A0606168884241
:1014C00004D32068A06001E005B16D1E6D1CA5630A
:1014D0003046BDE8F08110B5044690F8590058B187
:1014E00001280CD002280FD0502080F31188BFF3C0
:1014F0004F8FBFF36F8FFEE7206B00F09DFB204600
:10150000BDE8104000F098BB10BD000010484FF43B
:101510004061420706D0C01D0D4920F00700411A66
:10152000C1F540610B4A00230144C2E900030839B8
:10153000103A21F0070111604B600B600B1AC0E9F3
:10154000001393604FF000405360D060704700007C
:10155000F80D002084000020144E154CA6F29C4784
:101560004FF08058DFF84C9012E000BF00F030FBE5
:10157000F068C568281D00F0CFFA2069401E206180
:10158000E068401EE06000F043FB2846FFF7A3FF41
:10159000E0680028EAD138680128F9D9C9F8008044
:1015A000BFF34F8FBFF36F8FF2E7000000060020FC
:1015B0002000002004ED00E0002807D00021416059
:1015C00001600B460A46C16000F0C4BD70470000D0
:1015D00070B51D46049C51B1C4F80020C4E90F0148
:1015E0000121204600F072FD84F84C5070BD24604B
:1015F000F4E72DE9F0470E46DDE9098417468246F7
:1016000091009946089DA522206BFEF7E9FD6FF039
:101610000301206B01EB8701084420F007077807DE
:1016200007D0502080F31188BFF34F8FBFF36F8F27
:10163000FEE72218315C82F83410315C11B1401C95
:101640001028F6D3002684F84360382D00D33725C0
:10165000E562C4E91356201D00F093FA04F1180066
:1016600000F08FFA2461C5F138006462A0616665FC
:1016700084F858604A465146384600F03BFA2060EC
:10168000B8F1000F01D0C8F80040BDE8F0870000B5
:1016900030B5114900E011460A688242FBD34B681D
:1016A0005C18844203D14068184448600846436887
:1016B0001C18944209D1084C103C2468A24209D05D
:1016C00052681A4442600A6812680260814200D07F
:1016D000086030BD0460F9E78400002070B5002484
:1016E00041600B4D0061914206D8D11A8269914246
:1016F00006D2011D686807E09A4203D2994201D3DD
:10170000012403E0011D286800F03EFA204670BD68
:101710005C00002010B5044600F05AFAA06B28B116
:101720005FF0000400F074FA204610BD0124F9E7D0
:1017300030B589B0304D55E00498002806DADDE96F
:101740000601059A9047049800284BDB069C6069C7
:1017500010B1201D00F0E0F902A800F0B9F802462F
:1017600004980A283ED2DFE800F00505053D26373B
:1017700005053D260598A169034601442046FFF76B
:10178000ADFF00B3616A20468847E069012829D18E
:10179000002000900598A1690023421819462046B0
:1017A00001F096F878B9502080F31188BFF34F8F7D
:1017B000BFF36F8FFEE70598A06128B1811813462B
:1017C0002046FFF78BFF0DE0502080F31188BFF318
:1017D0004F8FBFF36F8FFEE794F82C0010B92046AF
:1017E00000F02AFA002204A9A86800F0C1FD002830
:1017F000A2D109B030BD00005C0000202DE9FC4101
:101800000F46054600F064FB01A800F061F80446AD
:10181000019818B100F0CAFFBDE8FC81224EAFB1BB
:1018200070680068A8B30027291B3A46B06800F02A
:1018300081FA00F0BBFF0028EED11C494FF0805028
:101840000860BFF34F8FBFF36F8FE5E7A542EBD87A
:1018500000F0ACFF30682746C068C468201D00F067
:101860005BF9E069012810D1A0692B4641193A467D
:101870002046FFF733FF40B10020034601460090A9
:101880002A46204601F024F820B1616A20468847A4
:10189000C2E707E0502080F31188BFF34F8FBFF3FA
:1018A0006F8FFEE70127BFE75C00002004ED00E03A
:1018B00006484168096829B14168C968C96849682A
:1018C000016370474FF0FF31FAE70000200000206D
:1018D00070B5054600F088FE064E04463069844225
:1018E00003D200F009F8012000E000202860204623
:1018F000346170BD5C000020F8B5194D1FE0C06870
:10190000C4680668201D00F007F9616A2046884710
:10191000E069012813D1A0693044B04206D924619E
:101920006060211D286800F02FF908E000200346C0
:10193000014600903246204600F0CAFF38B12868C0
:1019400001680029DBD16968C5E90010F8BD5020A5
:1019500080F31188BFF34F8FBFF36F8FFEE7000056
:101960005C00002008484068401C4FF0500080F3A5
:10197000118804D0BFF34F8FBFF36F8FFEE7BFF323
:101980004F8FBFF36F8FFEE78C000020074C20685D
:10199000016841B1C0680021D0F80000FFF72EFFB8
:1019A000FFF7C6FEF3E701210020F7E75C00002007
:1019B0002DE9F041044600F00BF994F9455004F18B
:1019C000240609E0606A48B1304600F0B7FE08B16D
:1019D00000F000FA6D1E6DB2002DF3DC4FF0FF3603
:1019E00084F8456000F014F900F0F2F894F94450DE
:1019F00004F1100709E0206948B1384600F09EFE66
:101A000008B100F0E7F96D1E6DB2002DF3DC84F82B
:101A10004460BDE8F04100F0FBB800002DE9F04162
:101A20000546002700F054FA314E306808B9FFF738
:101A30006DFDF06805424BD1C5B3083568070ED07F
:101A400005F00700C0F108000544680707D05020E2
:101A500080F31188BFF34F8FBFF36F8FFEE72DB375
:101A60007068854234D82248103001460C6801E085
:101A700020460C466168A94202D221680029F7D1AC
:101A800031688C4224D0076821680160606808379B
:101A9000411B10290FD96019420708D0502080F34C
:101AA0001188BFF34F8FBFF36F8FFEE710E04160E7
:101AB0006560FFF7EDFD61687068401A7060B2689C
:101AC000904200D2B060F06801430020C4E90001F8
:101AD00000F06CFE780707D0502080F31188BFF328
:101AE0004F8FBFF36F8FFEE73846BDE8F0810000EF
:101AF0007400002010B5031F4FF080741C601B1F82
:101B000021F001011960191F024B0B601439403894
:101B10000A6010BD65190008D0E9013201699A60B8
:101B2000D0E901235A604A68824201D182684A6042
:101B3000002202610868401E0860086870470000C3
:101B4000034B036003F15C00086080201060704765
:101B500040070020044B036003F15C0008604FF471
:101B600080701060704700009C09002000F108019F
:101B70004FF0FF32C0E90112C16001610021016034
:101B8000704700210161704730B50B685A1C02D0C4
:101B900000F1080202E0026904E022465468256868
:101BA0009D42FAD953684B6099608A605160086120
:101BB0000168491C016030BD42684A6093688B60CF
:101BC00093685960916008610168491C0160704721
:101BD000502080F31188BFF34F8FBFF36F8F0A49F6
:101BE0004868401C486001280CD10848006810F083
:101BF000FF0F07D0502080F31188BFF34F8FBFF342
:101C00006F8FFEE7704700008C00002004ED00E0BD
:101C10000849486828B1401E486001D180F3118806
:101C20007047502080F31188BFF34F8FBFF36F8F41
:101C3000FEE700008C00002070B5002827D0144D6E
:101C4000A0F108046168E868014207D1502080F3E0
:101C50001188BFF34F8FBFF36F8FFEE722683AB151
:101C6000502080F31188BFF34F8FBFF36F8FFEE7D3
:101C70008143616000F02CF960686968084468601D
:101C80002046FFF705FDBDE8704000F08FBD70BD38
:101C9000740000204FF0E0200021016181610549BE
:101CA0004FF47A720968B1FBF2F1491E41610721D4
:101CB000016170471C00002010B5FEF769FA114958
:101CC00010280ED300F1E02090F8F0030A7890423B
:101CD00007D2502080F31188BFF34F8FBFF36F8F6F
:101CE000FEE709480068896800F4E060884207D987
:101CF000502080F31188BFF34F8FBFF36F8FFEE743
:101D000010BD00008C0000200CED00E010B5084B69
:101D1000002200BF53F832401CB1521C082AF9D3EC
:101D200010BD43F8321003EBC201486010BD000043
:101D30002401002070B515460E460446FFF748FF03
:101D400094F944100020491C01D184F8440094F90E
:101D50004510491C01D184F84500FFF759FFA06BDD
:101D600028B92A46314604F1240000F051F82046F3
:101D7000BDE87040FFF71CBE10B5020014D00F483C
:101D8000806B38B1502080F31188BFF34F8FBFF3C1
:101D90006F8FFEE700F09CF800211046FFF790FAE5
:101DA00000F004FD002807D105494FF0805008607D
:101DB000BFF34F8FBFF36F8F10BD000020000020D6
:101DC00004ED00E002498A6A026049694160704797
:101DD00020000020014901204862704720000020B7
:101DE00010B50C4650B1094909681831FFF7CCFE0F
:101DF0002046BDE810400121FFF762BA502080F371
:101E00001188BFF34F8FBFF36F8FFEE720000020D4
:101E100070B514460D4668B10A4909681831FFF7D4
:101E2000CBFE0CB14FF0FF3521462846BDE870408F
:101E3000FFF746BA502080F31188BFF34F8FBFF3EE
:101E40006F8FFEE72000002030B587B00024039498
:101E500005AA04A903A80494FFF772FEDDE90301B3
:101E60000094CDE90110002315A11748059A00F050
:101E700082FB164D002868631FD000F0F9FC012892
:101E800009D0401C19D1502080F31188BFF34F8F27
:101E9000BFF36F8FFEE7502080F31188BFF34F8FA1
:101EA000BFF36F8F4FF0FF3028630120E8616C6152
:101EB00007B0BDE8304000F045B807B030BD0000C5
:101EC00049444C450000000059150008200000203E
:101ED0000248816B491C816370470000200000208C
:101EE000164810B5816B11B10121416210BD00216E
:101EF00041628169124A01E0B9B1491E01EB8103D7
:101F000052F82330002BF7D001EB810302EB830260
:101F100002F1080453685B685360A34201D15B6817
:101F20005360DA680260816110BD502080F311882F
:101F3000BFF34F8FBFF36F8FFEE70000200000203C
:101F4000640100201CB5264908780190FF20087024
:101F500008788DF800009DF800009DF8002000F042
:101F6000F000904207D0502080F31188BFF34F8FCC
:101F7000BFF36F8FFEE79DF800001A4B00F0500092
:101F800018700720986005E09DF8002052008DF839
:101F90000020401E9DF800201206F5D4986003280A
:101FA00007D0502080F31188BFF34F8FBFF36F8F9E
:101FB000FEE74FF440709860019808700A48016885
:101FC00041F470010160016841F070410160FFF768
:101FD00061FE00205860FEF7A5F800201CBD00003F
:101FE00000E400E08C00002020ED00E010B5024687
:101FF0000021012000F012F80446FFF7DDFA204628
:1020000010BD38B50B46002200901146012000F0AB
:1020100029F80446FFF7D0FA204638BDF8B5174630
:102020000E46050014D0DEB105FB06F05030FFF778
:10203000F5FC04000AD0002084F8460004F15002A8
:102040003B46314628460094FFF7C2FA2046F8BDC9
:10205000502080F31188BFF34F8FBFF36F8FFEE7DF
:102060000020E3E738B5049D18B153B1CAB181B17E
:1020700020E0502080F31188BFF34F8FBFF36F8FA4
:10208000FEE7502080F31188BFF34F8FBFF36F8FAF
:10209000FEE7502080F31188BFF34F8FBFF36F8F9F
:1020A000FEE739B1502080F31188BFF34F8FBFF3A3
:1020B0006F8FFEE750241C46012384F846302B46E0
:1020C0000094FFF785FA204638BD000070B50D4634
:1020D000040025D0FFF77CFDD4E90F20216802FB26
:1020E000001161600021A1632168A1600A46D4E962
:1020F0000F01401E00FB0121E16021464FF0FF303F
:1021000001F8440F487004F110008DB1FFF72EFD67
:1021100004F12400FFF72AFDFFF77AFD012070BDCE
:10212000502080F31188BFF34F8FBFF36F8FFEE70E
:1021300021690029F0D000F001FB0028ECD004490F
:102140004FF080500860BFF34F8FBFF36F8FE3E70E
:1021500004ED00E02DE9FF4782B01D468A464FF0AE
:102160000008040003D0BAF1000F08D011E050209D
:1021700080F31188BFF34F8FBFF36F8FFEE7206CA2
:1021800038B1502080F31188BFF34F8FBFF36F8FAA
:10219000FEE7022D0AD1E06B012807D0502080F322
:1021A0001188BFF34F8FBFF36F8FFEE700F00EFA79
:1021B0003F4F4FF000094FF0805648B9049838B1AE
:1021C000502080F31188BFF34F8FBFF36F8FFEE76E
:1021D000FFF7FEFCA06BE16B884207D3022D05D010
:1021E0000498D0B1B8F1000F1AD01EE02A4651462B
:1021F0002046FFF73AF9616A19B104F1240000F0B2
:102200009DFA20B13E60BFF34F8FBFF36F8FFFF792
:10221000FFFC012006B0BDE8F087FFF7F9FC22E0E3
:102220006846FFF7CFFD4FF00108FFF7F1FCFFF71D
:102230004FFEFFF7CDFC94F94400401C01D184F817
:10224000449094F94500401C01D184F84590FFF773
:10225000DFFC04A9684600F027F930B12046FFF7FB
:10226000A7FB00F0A3FA0020D4E7FFF7B1FCA06BB6
:10227000E16B884213D1FFF7CBFC04F11000049905
:10228000FFF7AEFD2046FFF793FB00F08FFA002822
:102290009ED13E60BFF34F8FBFF36F8F98E7FFF77C
:1022A000B7FC2046FFF784FB00F080FA90E70000BF
:1022B00004ED00E02DE9F0471F46904689460400F2
:1022C00003D0B9F1000F08D011E0502080F311883D
:1022D000BFF34F8FBFF36F8FFEE7206C38B15020F4
:1022E00080F31188BFF34F8FBFF36F8FFEE7022F8C
:1022F0000AD1E06B012807D0502080F31188BFF38A
:102300004F8FBFF36F8FFEE7FFF7D6FC5020EFF340
:10231000118680F31188BFF34F8FBFF36F8FA06BCF
:10232000E16B884206D3022F04D0002086F3118887
:10233000BDE8F08794F945503A4649462046FFF7F4
:1023400094F8681C04D06D1C84F845500120EDE71A
:10235000606A0028FAD004F1240000F0EFF90028A8
:10236000F4D0B8F1000FF1D00121C8F80010EDE76A
:102370002DE9F747002683B08A46040003D0BAF15E
:10238000000F08D011E0502080F31188BFF34F8F69
:10239000BFF36F8FFEE7206C38B1502080F31188B7
:1023A000BFF34F8FBFF36F8FFEE700F00FF9DFF839
:1023B000F4804FF000094FF0805748B9059838B1C4
:1023C000502080F31188BFF34F8FBFF36F8FFEE76C
:1023D000FFF7FEFBA56BC5B151462046FFF732F86B
:1023E0006D1EA563206950B104F1100000F0A6F93C
:1023F00028B1C8F80070BFF34F8FBFF36F8FFFF79E
:1024000007FC012006B0BDE8F087059808B11EB1B1
:1024100006E0FFF7FDFB27E06846FFF7D3FC012647
:10242000FFF7F6FBFFF754FDFFF7D2FB94F94400EA
:10243000401C01D184F8449094F94500401C01D11E
:1024400084F84590FFF7E4FB05A9684600F02CF8F6
:10245000002820460AD0FFF7ABFA00F0A7F9204683
:10246000FFF758F90028B3D00020CBE7FFF752F967
:1024700090B104F124000599FFF7B2FC2046FFF764
:1024800097FA00F093F90028A2D1C8F80070BFF3C2
:102490004F8FBFF36F8F9BE72046FFF789FA00F05D
:1024A00085F995E704ED00E02DE9F0410C460500C3
:1024B00011D0C4B1FFF78CFB174B5A696E682068C6
:1024C000911B471C17D02F689B6A9F4219D09642D8
:1024D00017D8012410E0502080F31188BFF34F8FEC
:1024E000BFF36F8FFEE7502080F31188BFF34F8F4B
:1024F000BFF36F8FFEE70024FFF78AFB2046BDE89D
:10250000F081884205D9401A20602846FFF75AFC1E
:10251000F1E700202060DCE7200000202DE9FF5FCC
:102520008346DDE90E87994616468A469000FFF7F6
:1025300075FA05001CD05C20FFF770FA040014D077
:102540000020256384F85900CDE90240CDE90087D9
:102550004B46324651465846FFF74BF82046FEF7A9
:10256000DDFE012004B0BDE8F09F2846FFF764FBC4
:102570004FF0FF30F6E7F0B585B0DDE90B640A9D5A
:10258000A6B1DCB15C2700972663022684F8596067
:10259000002604AFCDE90246CDE90057FFF729F840
:1025A0002046FEF7BBFE049805B0F0BD502080F336
:1025B0001188BFF34F8FBFF36F8FFEE7502080F37A
:1025C0001188BFF34F8FBFF36F8FFEE70548C169D6
:1025D00019B1806B18B100207047012070470220AC
:1025E000704700002000002001484069704700004B
:1025F000200000202DE9F0412E4C0027A06B40B1B7
:10260000206A401C2062606A00B101273846BDE89C
:10261000F0816669761C666113D16068006838B124
:10262000502080F31188BFF34F8FBFF36F8FFEE709
:102630006068A1686160A060A06A401CA062FFF7AA
:1026400037F9206BDFF87080864209D36068006834
:1026500080B16068C068C568686886420DD2206332
:102660002068C06A00EB800158F821000128CAD90F
:102670000127C8E74FF0FF30F1E7281DFFF74CFABC
:10268000A86A18B105F11800FFF746FAE86AA169CF
:10269000884200D9A06100EB800108EB8100291D70
:1026A000FFF78AFAE86A2168C96A8842CED301270F
:1026B000CCE70000200000206401002070B5040079
:1026C0004FF0000133D01B4D2868844207D05020C2
:1026D00080F31188BFF34F8FBFF36F8FFEE7206D3C
:1026E00038B1401E2065E36CE26A9A421FD040B1C7
:1026F0001DE0502080F31188BFF34F8FBFF36F8F21
:10270000FEE7201DFFF708FAE06CE062C0F1380038
:10271000A061E06AA969884200D9A861064900EB76
:10272000800001EB8000211DFFF746FA01210846D9
:1027300070BD0000200000206401002070B5C0685A
:10274000C46854B104F118000646FFF7E5F9144DCA
:10275000A86B50B13146134815E0502080F3118822
:10276000BFF34F8FBFF36F8FFEE7201DFFF7D4F944
:10277000E06AA969884200D9A8610B4900EB800092
:1027800001EB8000211DFFF717FAE06A2968C96A8A
:10279000884202D90120686270BD002070BD00002F
:1027A00020000020EC050020640100202DE9F04706
:1027B0002C4D00242746A86B38B1FFF709FAA86B07
:1027C000401EA863A86B40B146E0502080F31188FA
:1027D000BFF34F8FBFF36F8FFEE72969224E0120B1
:1027E000D1B3A6F5916980463068E0B1F068C4685D
:1027F00004F11800FFF790F9201DFFF78DF9E06A4A
:10280000A969884200D9A86100EB800109EB810029
:10281000211DFFF7D1F9E06A2968C96A8842E3D32C
:10282000C5F82480E0E70CB1FFF742F82C6A4CB100
:102830004FEA0806FFF7DEFE00B16E62641EF9D1B2
:1028400000202862686A38B1084901273807086003
:10285000BFF34F8FBFF36F8FFFF7DAF93846BDE84C
:10286000F087000020000020EC05002004ED00E0CF
:1028700010B586B0FEF7BAFD114CA068B8B10020C3
:102880000390049005AA04A903A8FFF763F9DDE902
:10289000032102208DE8070000230AA10B48059AB6
:1028A000FFF769FEE06010B106B0012010BD5020B6
:1028B00080F31188BFF34F8FBFF36F8FFEE70000E7
:1028C0005C000020546D7220537663008D1900085F
:1028D0002DE9FF411E46134602000A9D4FF00000FD
:1028E00016D0144CA768002F0FD0CDE90013029228
:1028F000062917DAFFF76AFE02284FF000030FD00F
:1029000000226946A068FFF725FC04B0BDE8F0810D
:10291000502080F31188BFF34F8FBFF36F8FFEE716
:102920002A46EEE70023324669463846FFF7C2FCE6
:10293000EBE700005C000020F02900080000000028
:102940000000000000000000000000000002000085
:10295000180000000000000000000000D829000856
:102960000000000000000000000000000000000067
:10297000000200000800000000000000000000004D
:10298000E429000800000000000000000000000032
:10299000000000000002000008000000000000002D
:1029A00000000000CC29000800000000000000002A
:1029B000000000000000000000000000010203040D
:1029C0000607080900000000010203046D794D7537
:1029D00074657830310000006D795461736B30326A
:1029E000000000006D795461736B3033000000000B
:1029F00064656661756C745461736B001C2A000811
:102A00000000002098000000B2100008B42A00085E
:102A100098000020601D0000C210000800000000A7
:102A200000000000000000000000000001000000A5
:102A300010000000000000000024F400000000006E
:102A40000000000000000000000000000000000086
:102A50000000000000000000000000000000000076
:102A60000000000000000000000000000000000066
:102A70000000000000000000000000000000000056
:102A80000000000000000000000000000000000046
:102A90000000000000000000000000000000000036
:102AA000000000000000000000000000AAAAAAAA7E
:042AB0000000000022
:04000005080000ED02
:00000001FF
