:020000040800F2
:100000007804002001010008CF100008010D00084D
:10001000CD10000897030008E1110008000000005F
:10002000000000000000000000000000D3100008E5
:100030009903000800000000D1100008D510000846
:100040001B0100081B0100081B0100081B01000820
:100050001B0100081B0100081B0100081B01000810
:100060001B0100081B0100081B0100081B01000800
:100070001B0100081B0100081B0100081B010008F0
:100080001B0100081B0100081B0100081B010008E0
:100090001B0100081B0100081B0100081B010008D0
:1000A0001B0100081B0100081B0100081B010008C0
:1000B0001B0100081B0100081B0100081B010008B0
:1000C0001B0100081B0100081B0100081B010008A0
:1000D0001B0100081B0100081B0100081B01000890
:1000E0001B0100081B0100081B010008DFF80CD0F1
:1000F00000F030F900480047211200087804002081
:100100000648804706480047FEE7FEE7FEE7FEE7B1
:10011000FEE7FEE7FEE7FEE7FEE7FEE72711000841
:10012000ED000008202A04DB203A21FA02F0002129
:10013000704721FA02F3D040C2F1200291400843F7
:1001400019467047D2B201E000F8012B491EFBD2DC
:1001500070470022F6E710B513460A4604461946D2
:10016000FFF7F0FF204610BD2DE9FE4F81EA0304A2
:1001700004F0004421F0004100944FF0000B23F004
:10018000004350EA01045ED052EA03045BD0C3F39B
:100190000A54C1F30A552C44A4F2F3340194A0FB91
:1001A0000254C1F3130141F48011C3F3130343F468
:1001B000801301FB024400FB034E840A970A44EAC1
:1001C000815447EA8357A4FB076802958D0A05FB13
:1001D00007854FEA932C04FB0C542705029D4FEA38
:1001E000065847EA1637B5EB08056EEB070C870E85
:1001F000920E47EA811742EA8312A7FB0201B6EB8F
:100200000B0164EB00042B0D43EA0C335E1844EB46
:100210001C50DA465146E7FB0201C5F313044FEACE
:100220000B3343EA14534FEA0432019C43EA0603BA
:10023000A4F10C040294009CCDE900B400F03BF85A
:1002400003B0BDE8F08F00200146F9E70EB540F29B
:10025000334102910021CDE900110A460B4600F01E
:100260002AF803B000BDC1F30A5210B5C1F313015F
:1002700040F2FF3341F480119A4201DA002010BDB0
:1002800040F233439A42A2F2334203DC5242FFF778
:1002900049FF10BD904010BD10B5141E73F100044D
:1002A00008DA401C41F1000192185B411A4301D168
:1002B00020F0010010BD2DE9F04D92469B4611B192
:1002C000B1FA81F202E0B0FA80F22032904600F0FA
:1002D00053F804460F4640EA0A0041EA0B01534630
:1002E0005A46084313D0114653EA010019D0C8F109
:1002F00040025046FFF716FF05460E465046594647
:10030000424600F039F8084305D0012004E02046B9
:100310003946BDE8F08D0020054346EAE0762C43DF
:1003200037430A986305E40AA0EB08000022FD0A9F
:1003300044EA47540A3002D500200146E9E70105A6
:1003400010196941DDE9084500196941BDE8F04D22
:10035000A2E70000064C074D06E0E06840F001030C
:1003600094E8070098471034AC42F6D3FFF7C2FE7A
:10037000A8120008C8120008202A04DB203A00FA5C
:1003800002F1002070479140C2F1200320FA03F3EC
:10039000194390407047FEE77047704770B50446B8
:1003A00000F004F90546601C02D0044800780444BB
:1003B00000F0FCF8401BA042FAD370BD24000020DE
:1003C0002DE9F84FDFF8B891002409F1040A0AF189
:1003D000040B23460F270BF1040EC9E00125A540AD
:1003E0002A40AA427DD1674ED1F804C0ACEB060882
:1003F000B44532D014DCBCF1030F3AD009DCBCF1B7
:10040000000F2AD0BCF1010F1CD0BCF1020F31D17A
:100410001DE0BCF1110F17D0BCF1120F2AD119E069
:10042000B8F5881F19D006DCB8F5803F15D0B8F5AF
:10043000801F1FD111E0B8F5001F0ED0B8F5041FC2
:1004400018D10AE0CB6815E0CB681B1D12E0CB6821
:1004500008330FE0CB680C330CE08B682BB1012B19
:100460004FF0080303D0456104E0042302E0056176
:1004700000E00023FF2A01D8064601E000F104064F
:100480004FEA840501D9A5F12005D6F8008007FAC6
:1004900005FC28EA0C0803FA05F548EA0508C6F841
:1004A00000804D68ED0062D5374DAE6946F001061B
:1004B000AE61AD6924F0030605F001050095334DEA
:1004C00006EB050CDCF80850A607360F07FA06F80D
:1004D00025EA0805DFF8B880404503D14FF0000851
:1004E00017E044E0DFF8AC80404502D14FF001084E
:1004F0000FE0DFF8A480404502D14FF0020808E089
:10050000DFF89880404502D14FF0030801E04FF03A
:10051000040808FA06F848EA0508CCF808804D688F
:10052000D9F80060ED034D4601D5164300E096432F
:100530002E604D68DAF80060AD03554601D51643CC
:1005400000E096432E604D68DBF80060ED025D46EA
:1005500001D5164300E096432E604D68DEF800603A
:10056000AD02754601D5164300E096432E60641C2B
:100570000D682A46E5407FF431AFBDE8F88F0000F2
:100580000004014000001110001002400000014072
:1005900000080140000C014000100140001401401F
:1005A0000AB1016170470904FBE700000148806857
:1005B000704700002400002002488168027811443E
:1005C0008160704724000020074810B5016841F0A1
:1005D00010010160032000F067F8002000F006F829
:1005E00000F024F8002010BD0020024070B50D4D31
:1005F00004464FF47A712878B1FBF0F00A49096893
:10060000B1FBF0F000F0FEFA48B9102C07D200223E
:100610002146501E00F028F800206C6070BD0120BB
:1006200070BD000024000020300000200C4808B5F8
:10063000816941F001018161816901F0010100914D
:10064000C16941F08051C161C06900F080500090E3
:100650000448416821F0E06141F00071416008BD4B
:100660000010024000000140F0B40E4B1B680C4625
:10067000C3F30223C3F10705042D00D90425191D76
:10068000072901D2002300E0DB1E012606FA05F14E
:10069000491E214099409E40761E16403143F0BCD1
:1006A00000F09FBD0CED00E0064900F0070208686D
:1006B0004FF6FF03184040EA0220034A1043086047
:1006C000704700000CED00E00000FA052DE9F0474E
:1006D0000F46050061D0434E306800F00700B84275
:1006E00009D2306820F0070038433060306800F0ED
:1006F0000700B84251D128683B4C810712D540070A
:1007000003D5606840F4E06060602878000703D596
:10071000606840F4605060606068A96820F0F00094
:10072000084360602878C00728D06868012810D086
:100730002168022810D0890700292EDA616821F08B
:10074000030101436160FFF731FF804641F28839C0
:100750000DE021688903EFE78901EDE7FFF726FF48
:10076000A0EB0801494502D90320BDE8F087606885
:10077000696800F00C00B0EB810FEFD1306800F039
:100780000700B8420BD9306820F0070038433060CA
:10079000306800F00700B84201D00120E5E7287872
:1007A000400705D56068E96820F4E06008436060B0
:1007B0002878000706D56068296920F4605040EA6F
:1007C000C100606000F058F86168084AC1F3031185
:1007D000515CC8400649086006480068FFF706FFFC
:1007E0000020C2E7002002400010024090120008E2
:1007F00030000020280000200F2202600C4A5368BD
:1008000003F003034360536803F0F003836053680D
:1008100003F4E063C36052684FF4E06303EAD2027A
:1008200002610448006800F007000860704700009B
:100830000010024000200240044805490068496851
:10084000044AC1F30221515CC840704730000020C7
:1008500000100240A01200080448054900684968D9
:10086000044AC1F3C221515CC840704730000020E7
:1008700000100240A012000812A185B00FC98DE837
:100880000F0014A0144A006804905168134801F046
:100890000C03042B10D0082B0ED1C1F38343C903E2
:1008A0001DF803000AD5516804AAC1F34041515C08
:1008B0000A4A5043B0FBF1F005B07047084948437D
:1008C000FAE7000002030405060708090A0B0C0DED
:1008D0000E0F1010010200000010024000127A00FA
:1008E00000093D002DE9F84F040070D02078C04D7C
:1008F000C00749D06868C0F38100012807D0686844
:10090000C0F38100022809D16868C00306D52868B1
:10091000800339D560680028E7D035E06068B0F51D
:10092000803F0BD010B1B0F5A02F11D0286820F473
:1009300080302860286820F4802002E0286840F495
:1009400080302860606890B1FFF730FE06460AE00C
:10095000286840F480202860F0E700BFFFF726FEFB
:10096000801B642873D828688003F7D50CE0FFF754
:100970001DFE064605E000BFFFF718FE801B642839
:10098000F0D828688003F7D420789A4E80074FF07B
:1009900001094FF0000839D5686810F00C0F07D036
:1009A0006868C0F38100022809D16868C00306D4D2
:1009B0002868800714D52069012808D110E0206933
:1009C000B0B1C6F80090FFF7F1FD074605E00AE177
:1009D000FFF7ECFDC01B0228C4D828688007F7D5B4
:1009E0002868616920F0F80040EAC10028600DE045
:1009F000C6F80080FFF7DAFD074604E0FFF7D6FDF2
:100A0000C01B022823D828688007F7D42078000765
:100A10002CD57948A169D9B1C0F80090FFF7C6FD7F
:100A2000074604E0FFF7C2FDC01B02280FD8686A22
:100A30008007F7D571484FF4FA510068B0FBF1F028
:100A4000009000BF0098411E0091FAD20EE080E0B5
:100A5000C0F80080FFF7AAFD074604E0FFF7A6FDF7
:100A6000C01B022875D8686A8007F7D42078400731
:100A700060D5E8690027C00008D4E86940F08050DC
:100A8000E861E869012700F0805000905C48016847
:100A9000C90513D40168834641F480710160FFF7F2
:100AA00085FD824606E000BFFFF780FDA0EB0A004F
:100AB00064284ED8DBF80000C005F5D5E0680128B1
:100AC0000AD008B1052813D0286A20F00100286256
:100AD000286A20F0040002E0286A40F00100286241
:100AE000E06841F2883B98B1FFF760FD82460BE079
:100AF000286A40F004002862EEE700BFFFF756FDC9
:100B0000A0EB0A0159455AD8286A8007F6D50CE0AF
:100B1000FFF74CFD824605E0FFF748FDA0EB0A0118
:100B200059454CD8286A8007F6D41FB1E86920F0EF
:100B30008050E861E06988B36968C1F381010229E6
:100B400044D00228C6F8608004D0FFF72FFD044689
:100B500038E034E0FFF72AFD074604E0FFF726FD02
:100B6000C01B02282BD828688001F7D4206AB0F572
:100B7000803F05D16868A16820F4003008436860B0
:100B8000D4E908010843696821F4741108436860D6
:100B9000C6F86090FFF70AFD044606E025E000BFB6
:100BA000FFF704FD001B022809D828688001F7D54B
:100BB0001BE000BFFFF7FAFC001B022802D903204C
:100BC000BDE8F88F28688001F4D40EE00128F7D042
:100BD0006868226A00F48031914204D1616A00F4AD
:100BE0007010884201D00120EAE70020E8E7000009
:100BF00000100240000042428004424230000020C7
:100C00000070004010B5401EB0F1807F01D301207C
:100C100010BD4FF0E02460610F21601700F0E1FA91
:100C20000020A06107202061002010BD70B50400E5
:100C300004D094F83D00002510B106E0012070BDFD
:100C400084F83C50204600F023F8242084F83D002E
:100C50002068C16821F40051C160204600F064FAA8
:100C60002068016921F4904101612068416921F007
:100C70002A0141612068C16841F40051C1602564C6
:100C8000202084F83D0084F83E00002070BD000064
:100C900030B585B000240094019402940394006858
:100CA0001449884223D11448C16941F40031C1611B
:100CB000C16901F400310491816941F0040181614D
:100CC00080690E4D00F00400049004200090022082
:100CD00001900320039069462846FFF771FB082026
:100CE000CDE90004694628460294FFF769FB05B088
:100CF00030BD0000004400400010024000080140E8
:100D0000FEE70121022000F0DFB800002DE9F041EC
:100D100006AC94E8E0101E4CA061A180E280236242
:100D200025826682A782A4F816C000F053F802203C
:100D300020702820A0701420FFF730FB032000F063
:100D400043F90520FFF72AFB032000F03DF90120BD
:100D5000FFF724FB032000F037F90120FFF71EFB0B
:100D6000022000F031F90120FFF718FB0F2000F0FE
:100D70004FF9012000F04CF90320FFF70FFB28206A
:100D800000F046F9BDE8F0410320FFF707BB000083
:100D90000000002010B5094C0122E188A069FFF78E
:100DA000FFFB0A2000F05EF80022E188A069FFF74F
:100DB000F7FBBDE810403C2000F054B800000020D4
:100DC000020003488188806900D00122FFF7E8BB58
:100DD0000000002000B587B005A96846FFF70CFDAC
:100DE000039898B3FFF728FD5FEA4000FFF72EFA5B
:100DF000184A194BFFF7B8F9FFF735FA1749CA69CE
:100E000042F00202CA6116490A6822F010020A6022
:100E10000A6822F001020A600A6822F004020A60ED
:100E20000A6842F008020A600D492831401E086035
:100E30000920091D08600A49012014310860081FB3
:100E4000016821F00101016007B000BDFFE7FFF775
:100E5000F3FCCBE78DEDB5A0F7C6B03E0010024025
:100E6000000400400949401E086008481C38016819
:100E700021F00101016005492C390A6842F00102A4
:100E80000A600168C907FCD0704700002C040040CC
:100E900010B5012000F0BCF8BDE810400320FFF7BA
:100EA0007DBA70B50646002409E00120FFF788FFEF
:100EB000284600F017F8641CE4B2102C02D2355D0D
:100EC000002DF2D170BD0000491E01F00F01012874
:100ED00004D041F0C00000BF00F09AB841F080009B
:100EE000FAE700002DE9F84F0209364C02F008033A
:100EF00002F0040B217802F0020902F0010700F071
:100F0000080A00F0040600F0020500F00108009352
:100F100001292FD0022952D13A46218A206AFFF7AF
:100F20003FFB4A46618A206AFFF73AFB5A46A18A8C
:100F3000206AFFF735FBE18A009A206AFFF730FB51
:100F4000FFF728FF4246218A206AFFF729FB2A463D
:100F5000618A206AFFF724FB3246A18A206AFFF7E4
:100F60001FFB5246E18A206AFFF71AFBBDE8F84FE3
:100F7000FFF710BF42462189E069FFF711FB2A46BF
:100F80006189E069FFF70CFB3246A189E069FFF750
:100F900007FB5246E189E069FFF702FB3A46218AE6
:100FA000206AFFF7FDFA4A46618A206AFFF7F8FADD
:100FB0005A46A18A206AFFF7F3FA009AD2E7BDE801
:100FC000F88F00000000002070B504460020FFF7F5
:100FD000F7FE0E4D04F0010210212846FFF7E0FA5B
:100FE00004F0020220212846FFF7DAFA04F0040296
:100FF00040212846FFF7D4FA04F008028021284651
:10100000FFF7CEFABDE87040FFF7C4BE000C014008
:1010100010B504460020FFF7D3FE2046BDE810407F
:10102000FFF760BF30B585B00024184800940194E4
:1010300002940394816941F020018161816901F08A
:1010400020010491816941F004018161816901F00D
:1010500004010491816941F00801816180690C4DAE
:1010600000F0080004900022FF212846FFF798FABC
:10107000FF2000900120CDE9010402200390694681
:101080002846FFF79DF905B030BD00000010024072
:10109000000C01400C4810B50A4901604FF4E131E1
:1010A0004160002181600C22C160C0E904128161AD
:1010B000C161FFF7BBFD002803D0BDE81040FFF77A
:1010C0006CB910BD0044004034000020FEE77047BA
:1010D00070477047FFF770BA30B58FB02821684667
:1010E000FFF737F814210AA8FFF733F801210804A5
:1010F000CDE900100024029402250491CDE90750A7
:101100004FF4E01009906846FFF7ECFB0F20CDE9A3
:101110000A056802CDE90C4002210AA80E94FFF7E7
:10112000D5FA0FB030BD704770B50446006801694C
:10113000E26821F44051114301612169A06808432C
:10114000616908432168CA6841F20C639A4302430B
:10115000CA6020684169A26921F44071114341616C
:101160001E492068884202D1FFF776FB01E0FFF7B5
:1011700063FB00EBC00101EB00126068642180009A
:10118000B2FBF0F3B3FBF1F36FF018067343B2FB5D
:10119000F0F5B2FBF0F605EB8305322303EB051502
:1011A000B5FBF1F5B6FBF1F605F0F00505EB06151C
:1011B000B2FBF0F6B2FBF0F0B0FBF1F06FF018020A
:1011C000504306EB800003EB0010B0FBF1F0216808
:1011D00000F00F002844886070BD00000038014016
:1011E000FEE70907090E002804DB00F1E02080F883
:1011F0000014704700F00F0000F1E02080F8141D8B
:10120000704702E008C8121F08C1002AFAD17047CF
:101210007047002001E001C1121F002AFBD1704776
:101220001FB5FFF7D1F9FFF757FFFFF7FBFEFFF7F9
:1012300031FF80234022202110208DE80F00084834
:10124000022203460121FFF761FDFFF721FE05A001
:10125000FFF727FEFFF755FD06A0FFF722FEFEE78A
:10126000000C014049276D2068756E677279212155
:101270000000000049205265616C6C792077616E36
:101280007420746F20676F20686F6D652054540060
:101290000000000000000000010203040607080926
:1012A0000000000001020304C81200080000002032
:1012B0003400000002120008FC1200083400002074
:1012C0004404000012120008010F38000000000062
:1012D000000000000000000000000000000000000E
:1012E00000000000000000000000000001000000FD
:0C12F00010000000000000000024F400CA
:04000005080000ED02
:00000001FF
