:020000040800F2
:1000000090040020010100088B140008CD130008A3
:100010008914000835030008F114000800000000EE
:100020000000000000000000000000008F14000825
:1000300045030008000000008D140008911400081A
:100040001B0100081B0100081B0100081B01000820
:100050001B0100081B0100081B0100081B01000810
:100060001B0100081B0100081B01000839030008E0
:100070001B0100081B0100081B0100081B010008F0
:100080001B0100081B0100081B0100081B010008E0
:100090001B0100081B0100081B0100081B010008D0
:1000A0001B0100081B0100081B0100081B010008C0
:1000B0001B0100081B0100081B0100081B010008B0
:1000C0001B0100081B0100081B0100081B010008A0
:1000D0001B0100081B0100081B0100081B01000890
:1000E0001B0100081B0100081B010008DFF80CD0F1
:1000F00000F0A4F8004800473115000890040020E3
:100100000648804706480047FEE7FEE7FEE7FEE7B1
:10011000FEE7FEE7FEE7FEE7FEE7FEE7EF14000876
:10012000ED000008D2B201E000F8012B491EFBD21D
:1001300070470022F6E710B513460A4604461946F2
:10014000FFF7F0FF204610BD30B480EA010202F054
:10015000004530F0004221F0004013D090B1C30DB3
:10016000D40DC2F31601C0F31600E41A41F40001E5
:1001700040F400027D34914201D3641C00E0490048
:10018000002C02DA30BC002070474FF4000000233E
:10019000914201D3891A034340084FEA4101F7D144
:1001A00051B1914202D14FF0004105E002D24FF02F
:1001B000010101E06FF0010103EBC450284430BCA1
:1001C00000F005B896230022114600F009B8002976
:1001D000A8BF7047401C490008BF20F001007047CD
:1001E00010B4B0FA80FC00FA0CF050EA010404BF2D
:1001F00010BC704749B1CCF1200421FA04F411FA83
:100200000CF118BF012121430843A3EB0C01CB1DC6
:100210004FEA00614FEA102042BF002010BC704737
:1002200000EBC35010440029A4BF10BC7047401C11
:10023000490008BF20F0010010BC7047064C074D74
:1002400006E0E06840F0010394E8070098471034A6
:10025000AC42F6D3FFF74EFFB0150008D0150008EA
:1002600070B5044600688168C943C90717D1816821
:1002700021F00101816000F0B1FC05460AE000BFF9
:1002800000F0ACFC401B022804D920688068C04301
:10029000C00706D020688068C043C007F0D00020A7
:1002A00070BDA06A40F01000A062E06A40F001005A
:1002B000E062012070BD0000F8B5002604460096FB
:1002C00000688168C943C9072DD0816841F00101E8
:1002D0008160164816490068B0FBF1F000E0401E4E
:1002E00000900028FBD100F079FC054616E000BF25
:1002F00000F074FC401B022810D920688068C043BD
:10030000C0070BD0A06A40F01000A062E06A40F085
:100310000100E06284F824600120F8BD2068806854
:10032000C043C007E4D10020F8BD00001400002045
:1003300040420F00FEE70000014800F075BA0000DF
:100340004800002070477047F8B50024009490F8EA
:1003500024202546012A12D0012280F824204A6850
:100360001F23072A0DD20668776B521E02EB82020A
:1003700093409F430B6893401F43776319E002202B
:10038000F8BD06680D2A0AD2376BD21F02EB820233
:1003900093409F430B6893401F43376309E0F76A1C
:1003A0000D3A02EB820293409F430B6893401F4338
:1003B000F7620A68072306680A2A0AD3F7680A3A26
:1003C00002EB420293409F438B6893401F43F760C8
:1003D00008E0376902EB420293409F438B689340E9
:1003E0001F4337610A68102A01D0112A20D1124B0D
:1003F00002689A4217D193681B0219D4936843F498
:10040000000393600968102912D10C490C4A09684D
:10041000B1FBF2F101EB8101490000E0491E0091BE
:100420000029FBD104E0816A41F0200181620124AE
:1004300080F824502046F8BD00240140140000201C
:1004400040420F000068C06C704700002DE9F04189
:100450004FF0000704003D467ED0A06A002628B970
:10046000E66284F82460204600F07EF82046FFF71C
:10047000F7FEA16AC90600D420B1A06A40F01000BE
:10048000A06269E0A16A21F4885141F00201A162F1
:100490006268E169237B0A4347EA43010A43A16892
:1004A0004FF48077B94209D0012907D05FF00001ED
:1004B00094F814C0BCF1010F02D00AE03946F7E706
:1004C000F3B1A36A43F02003A362E36A43F001039C
:1004D000E3622368D3F804C02CF4694C4CEA010CA5
:1004E000C3F804C021688B68DFF870C003EA0C030E
:1004F00013438B60A168B9420BD0012909D00CE0ED
:10050000DFF85CC0A3690CEB43330B4343F4006199
:10051000DFE7218A0D05A5F580152168CB6A23F454
:1005200070032B43CB62216889680E4B19409142BE
:1005300008D1E662A16A21F0020141F00101A16245
:10054000BDE8F081A06A20F0020040F01000A06237
:10055000E06A40F00100E0620120F1E7FDF7E1FF11
:1005600000E0FFFFFE0E1FFF70B586B000250646B7
:10057000009501950295039500681A4988422ED18D
:100580001949886940F400708861886900F4007036
:100590000490886940F0040088618869694600F029
:1005A0000400049001200090032001900F4800F007
:1005B00025FA104C0E48C4E900058020C4E9025019
:1005C00040002061800060612020C4E906052046CB
:1005D00000F0D4F908B1FFF7B6FE3462666206B0E7
:1005E00070BD0000002401400010024000080140DE
:1005F00008000240480000202DE9F84300270D467E
:100600000446009700F0EAFA804620688168C90530
:1006100008D5A06A40F02000A06284F82470012070
:10062000BDE8F8834168C90503D4C06A10F4700FAF
:100630002AD0022000F070FB3B490968B1FBF0F6BC
:100640002068036939490B424FEA61014FEAA11260
:100650001FD1C3684FEA611C13EA0C0F19D103695B
:100660000B4225D1C068104222D1142023E0681C1F
:100670000AD02DB100F0B2FAA0EB0800A84203D9CD
:1006800020680068800725D5206800688007EED5BF
:100690002DE003690B4202D1C168114206D0026904
:1006A00023490A4206D1C068084203D1542002E01F
:1006B000292000E0FC204643009816E0681C11D079
:1006C0002DB100F08BFAA0EB0800A8420AD90098DF
:1006D000B04207D2A06A40F00400A06284F82470FF
:1006E00003209DE70098401C0090B042E6D32168AB
:1006F0006FF012000860A06A40F40070A0622068E9
:100700008068C0F3424007280CD1207B50B9A06A12
:1007100020F48070A062A06AC00403D4A06A40F0F4
:100720000100A06200207BE71400002024499224ED
:100730004992240070B5044690F8240001280DD099
:10074000012084F824002046FFF7B6FD02004FF098
:10075000000005D084F82400104670BD022070BD52
:10076000A16A40F20123994341F48071A1621F4DB7
:1007700023681F49AB4218D10E6816F4702F14D0AD
:10078000A66A46F48016A6620E68760505D5A66AA6
:1007900026F4005646F48056A662A66AF6040AD5E8
:1007A000E66A26F00606E66206E0A66A26F48016E9
:1007B000A6625E68E9E7E06284F824006FF0020058
:1007C000186020688368C3F34243072B05D1A84211
:1007D00008D1096811F4702F04D0816841F48011A8
:1007E0008160B9E7816841F4A001F9E70028014080
:1007F0000424014010B5044690F82400012807D0D5
:10080000012084F824002046FFF72AFD10B107E0FC
:10081000022010BDA16A21F4885141F00101A162BA
:10082000002184F8241010BD2DE9F05FC16B0C6825
:1008300001680B68D0F840C0042202FA0CF2494D5E
:10084000DFF824A1494E4A4FDFF828B1DFF828E14C
:1008500022422CD05A072AD50A68920603D40A6885
:1008600022F004020A600168A94201D1042219E0C1
:10087000514501D1402215E0B14202D14FF48062CE
:1008800010E0B94202D14FF480420BE0594502D149
:100890004FF4802206E0714502D14FF4800201E05E
:1008A0004FF080622F4908394A60C16A3BE04FF03F
:1008B000020808FA0CF818EA040F4FF000094FF08C
:1008C000010235D05FEA837832D50B689B0605D4E8
:1008D0000B6823F00A030B6080F821200168A9420D
:1008E00001D1022219E0514501D1202215E0B14287
:1008F00002D14FF4007210E0B94202D14FF400521D
:100900000BE0594502D14FF4003206E0714502D1A7
:100910004FF4001201E04FF00072124908394A60AA
:1009200080F82090816A00291AD0BDE8F05F08475E
:10093000082505FA0CF5254212D01B0710D50B68C7
:1009400023F00E030B6090F84010C36B02FA01F124
:100950005960826380F8212080F82090016BE2E7E3
:10096000BDE8F09F080002401C0002403000024039
:1009700044000240580002406C00024030B528B3E9
:1009800008C8134914221944B1FBF2F18900C1636C
:1009900010498163022141771A6843F6F0718A4356
:1009A000D0E900142143D0E902452C4321430469D6
:1009B0002143446921438469214311431960002183
:1009C0004163012242770177084630BD012030BDE6
:1009D000F8FFFDBF0000024070B5044600F0FEF8CD
:1009E0000546601C02D004480078044400F0F6F884
:1009F000401BA042FAD370BD080000202DE9F84F3B
:100A0000DFF8B891002409F1040A0AF1040B234627
:100A10000F270BF1040EC9E00125A5402A40AA4288
:100A20007DD1674ED1F804C0ACEB0608B44532D096
:100A300014DCBCF1030F3AD009DCBCF1000F2AD062
:100A4000BCF1010F1CD0BCF1020F31D11DE0BCF193
:100A5000110F17D0BCF1120F2AD119E0B8F5881F79
:100A600019D006DCB8F5803F15D0B8F5801F1FD12E
:100A700011E0B8F5001F0ED0B8F5041F18D10AE038
:100A8000CB6815E0CB681B1D12E0CB6808330FE084
:100A9000CB680C330CE08B682BB1012B4FF00803B3
:100AA00003D0456104E0042302E0056100E0002377
:100AB000FF2A01D8064601E000F104064FEA84054A
:100AC00001D9A5F12005D6F8008007FA05FC28EA2F
:100AD0000C0803FA05F548EA0508C6F800804D68D9
:100AE000ED0062D5374DAE6946F00106AE61AD69E5
:100AF00024F0030605F001050095334D06EB050CC7
:100B0000DCF80850A607360F07FA06F825EA0805AC
:100B1000DFF8B880404503D14FF0000817E044E00B
:100B2000DFF8AC80404502D14FF001080FE0DFF85C
:100B3000A480404502D14FF0020808E0DFF8988019
:100B4000404502D14FF0030801E04FF0040808FAD5
:100B500006F848EA0508CCF808804D68D9F8006026
:100B6000ED034D4601D5164300E096432E604D68D7
:100B7000DAF80060AD03554601D5164300E0964310
:100B80002E604D68DBF80060ED025D4601D516432E
:100B900000E096432E604D68DEF80060AD027546B9
:100BA00001D5164300E096432E60641C0D682A466A
:100BB000E5407FF431AFBDE8F88F0000000401404C
:100BC0000000111000100240000001400008014028
:100BD000000C0140001001400014014001488068F1
:100BE0007047000008000020024881680278114424
:100BF0008160704708000020074810B5016841F087
:100C000010010160032000F075F8002000F006F8E4
:100C100000F024F8002010BD0020024070B50D4DFA
:100C200004464FF47A712878B1FBF0F00A4909685C
:100C3000B1FBF0F000F0B6FB48B9102C07D200224F
:100C40002146501E00F036F800206C6070BD012077
:100C500070BD000008000020140000200C4808B5FA
:100C6000816941F001018161816901F00101009117
:100C7000C16941F08051C161C06900F080500090AD
:100C80000448416821F0E06141F00071416008BD15
:100C90000010024000000140002809DB00F01F02A4
:100CA000012191404009800000F1E020C0F80011CE
:100CB00070470000F0B40E4B1B680C46C3F30223D0
:100CC000C3F10705042D00D90425191D072901D2F8
:100CD000002300E0DB1E012606FA05F1491E214033
:100CE00099409E40761E16403143F0BC00F001BC96
:100CF0000CED00E0064900F0070208684FF6FF031C
:100D0000184040EA0220034A104308607047000080
:100D10000CED00E00000FA0510B529A401461DCC39
:100D200086B08DE81D002AA02A4C0068049000209F
:100D3000012923D002293AD010291DD161682268E7
:100D4000D20119D5C1F38342C9031DF8020009D5A8
:100D5000616804AAC1F34041515C1F4AB2FBF1F142
:100D6000484301E01D4948436168490204D44000FA
:100D70005FF00301B0FBF1F006B010BD226AC2F3D0
:100D80000121012903D1920701D5C803F4E7022903
:100D900005D1626A920702D549F64040ECE7032983
:100DA000EAD121688903E7D54FF22440E4E700F057
:100DB00023F96168C1F38131491C4900DAE7000079
:100DC00002030405060708090A0B0C0D0E0F10108C
:100DD000010200000010024000127A0000093D00EC
:100DE0002DE9F84305460078354CC00754D0E0693A
:100DF0000026C00008D4E06940F08050E061E0695E
:100E0000012600F0805000902E480168C90512D4D8
:100E10000168804641F480710160FFF7DFFE0746FC
:100E200005E000BFFFF7DAFEC01B642823D8D8F81E
:100E30000000C005F6D5206A10F4407021D0A988C2
:100E400001F4407181421CD0206A1F49012220F424
:100E500040700A6000220A602062C00711D0FFF7CC
:100E6000BDFE074641F2883808E000BFFFF7B6FE36
:100E7000C11B414502D90320BDE8F883206A8007E1
:100E8000F4D5206A696820F44070084320621EB1DE
:100E9000E06920F08050E0612878800705D560681F
:100EA000A96820F44040084360602878C00605D552
:100EB0006068E96820F48000084360600020DBE798
:100EC0000010024000700040400442422DE9F0470B
:100ED0000F46050061D0434E306800F00700B8426D
:100EE00009D2306820F0070038433060306800F0E5
:100EF0000700B84251D128683B4C810712D5400702
:100F000003D5606840F4E06060602878000703D58E
:100F1000606840F4605060606068A96820F0F0008C
:100F2000084360602878C00728D06868012810D07E
:100F30002168022810D0890700292EDA616821F083
:100F4000030101436160FFF749FE804641F28839A1
:100F50000DE021688903EFE78901EDE7FFF73EFE29
:100F6000A0EB0801494502D90320BDE8F08760687D
:100F7000696800F00C00B0EB810FEFD1306800F031
:100F80000700B8420BD9306820F0070038433060C2
:100F9000306800F00700B84201D00120E5E728786A
:100FA000400705D56068E96820F4E06008436060A8
:100FB0002878000706D56068296920F4605040EA67
:100FC000C100606000F028F86168084AC1F30311AD
:100FD000515CC8400649086006480068FFF71EFEDD
:100FE0000020C2E7002002400010024098150008CF
:100FF000140000200C0000200448054900684968DE
:10100000044AC1F3C221515CC8407047140000205B
:1010100000100240A815000812A185B00FC98DE884
:101020000F0014A0144A006804905168134801F09E
:101030000C03042B10D0082B0ED1C1F38343C9033A
:101040001DF803000AD5516804AAC1F34041515C60
:101050000A4A5043B0FBF1F005B0704708494843D5
:10106000FAE7000002030405060708090A0B0C0D45
:101070000E0F1010010200000010024000127A0052
:1010800000093D002DE9F84F040070D02078C04DD4
:10109000C00749D06868C0F38100012807D068689C
:1010A000C0F38100022809D16868C00306D528680A
:1010B000800339D560680028E7D035E06068B0F576
:1010C000803F0BD010B1B0F5A02F11D0286820F4CC
:1010D00080302860286820F4802002E0286840F4EE
:1010E00080302860606890B1FFF778FD06460AE01E
:1010F000286840F480202860F0E700BFFFF76EFD0D
:10110000801B642873D828688003F7D50CE0FFF7AC
:1011100065FD064605E000BFFFF760FD801B642803
:10112000F0D828688003F7D420789A4E80074FF0D3
:1011300001094FF0000839D5686810F00C0F07D08E
:101140006868C0F38100022809D16868C00306D42A
:101150002868800714D52069012808D110E020698B
:10116000B0B1C6F80090FFF739FD074605E00AE187
:10117000FFF734FDC01B0228C4D828688007F7D5C4
:101180002868616920F0F80040EAC10028600DE09D
:10119000C6F80080FFF722FD074604E0FFF71EFDBA
:1011A000C01B022823D828688007F7D420780007BE
:1011B0002CD57948A169D9B1C0F80090FFF70EFD90
:1011C000074604E0FFF70AFDC01B02280FD8686A33
:1011D0008007F7D571484FF4FA510068B0FBF1F081
:1011E000009000BF0098411E0091FAD20EE080E00E
:1011F000C0F80080FFF7F2FC074604E0FFF7EEFCC2
:10120000C01B022875D8686A8007F7D42078400789
:1012100060D5E8690027C00008D4E86940F0805034
:10122000E861E869012700F0805000905C4801689F
:10123000C90513D40168834641F480710160FFF74A
:10124000CDFC824606E000BFFFF7C8FCA0EB0A0019
:1012500064284ED8DBF80000C005F5D5E068012809
:101260000AD008B1052813D0286A20F001002862AE
:10127000286A20F0040002E0286A40F00100286299
:10128000E06841F2883B98B1FFF7A8FC82460BE08A
:10129000286A40F004002862EEE700BFFFF79EFCDA
:1012A000A0EB0A0159455AD8286A8007F6D50CE008
:1012B000FFF794FC824605E0FFF790FCA0EB0A01E3
:1012C00059454CD8286A8007F6D41FB1E86920F048
:1012D0008050E861E06988B36968C1F3810102293F
:1012E00044D00228C6F8608004D0FFF777FC04469B
:1012F00038E034E0FFF772FC074604E0FFF76EFCCD
:10130000C01B02282BD828688001F7D4206AB0F5CA
:10131000803F05D16868A16820F400300843686008
:10132000D4E908010843696821F47411084368602E
:10133000C6F86090FFF752FC044606E025E000BFC7
:10134000FFF74CFC001B022809D828688001F7D55C
:101350001BE000BFFFF742FC001B022802D903205C
:10136000BDE8F88F28688001F4D40EE00128F7D09A
:101370006868226A00F48031914204D1616A00F405
:101380007010884201D00120EAE70020E8E7000061
:10139000001002400000424280044242140000203B
:1013A0000070004010B5401EB0F1807F01D30120D5
:1013B00010BD4FF0E02460610F21601700F099F834
:1013C0000020A06107202061002010BDFEE7000082
:1013D0003EB500241548009401941349029401601D
:1013E0008915816004730475022505614FF460213D
:1013F0004460C161FFF72AF808B1FEF7A4FF01209D
:10140000CDE90040694609480294FEF79DFF08B106
:10141000FEF799FF694605480195FEF795FF0028FC
:1014200001D0FEF790FF3EBD0024014018000020CF
:10143000094808B5416941F0010141614069002254
:1014400000F00100009011460B20FFF733FCBDE8CF
:1014500008400B20FFF720BC00100240094808B5E7
:10146000816941F020018161816901F020010091D1
:10147000816941F004018161806900F004000090FD
:1014800008BD000000100240FEE77047704770473B
:10149000FFF7AABB30B593B028216846FEF749FE96
:1014A00014210AA8FEF745FE002401200F94109491
:1014B0001194010412948DE813000490CDE90814EE
:1014C000022507956846FFF7DDFD0F20CDE90A05E7
:1014D0006802CDE90C4000210AA80E94FFF7F6FC43
:1014E0000FA80F951194FFF77BFC13B030BD704728
:1014F000FEE70907090E002804DB00F1E02080F870
:101500000014704700F00F0000F1E02080F8141D77
:10151000704702E008C8121F08C1002AFAD17047BC
:101520007047002001E001C1121F002AFBD1704763
:10153000FFF762FBFFF7AEFFFFF790FFFFF778FFC3
:10154000FFF746FF114C124E4FF0FF354FF47A77FC
:101550001048FFF7EFF829460E48FFF74DF80D4801
:10156000FEF770FF20800B48FFF744F9208840F613
:10157000B8314843000B6080FEF724FE3146FEF789
:10158000E3FD60603846FFF727FAE1E7000000203E
:1015900000002041180000200000000000000000B2
:1015A0000102030406070809000000000102030409
:1015B000D0150008000000201800000012150008D7
:1015C000E815000818000020780400002215000823
:1015D00000000000000000000100000010000000FA
:0815E000000000000024F400EB
:04000005080000ED02
:00000001FF
