:020000040800F2
:10000000D004002001010008BF140008CB13000831
:10001000BD140008DD0200084916000800000000B9
:10002000000000000000000000000000C3140008F1
:100030001703000800000000C1140008C5140008E0
:100040001B0100081B0100081B0100081B01000820
:100050001B0100081B0100081B0100081B01000810
:100060001B0100081B0100081B010008E102000839
:100070001B0100081B0100081B0100081B010008F0
:100080001B0100081B0100081B0100081B010008E0
:100090001B0100081B0100081B0100081B010008D0
:1000A0001B0100081B0100081B0100081B010008C0
:1000B0001B0100081B0100081B0100081B010008B0
:1000C0001B0100081B0100081B0100081B010008A0
:1000D0001B0100081B0100081B0100081B01000890
:1000E0001B0100081B0100081B010008DFF80CD0F1
:1000F00000F040F80048004719180008D00400201C
:100100000648804706480047FEE7FEE7FEE7FEE7B1
:10011000FEE7FEE7FEE7FEE7FEE7FEE7291500083B
:10012000ED000008D2B201E000F8012B491EFBD21D
:1001300070470022F6E710B513460A4604461946F2
:10014000FFF7F0FF204610BD30B50B4601460020FA
:100150002022012409E021FA02F59D4205D303FA89
:1001600002F5491B04FA02F52844151EA2F101020A
:10017000F1DC30BD064C074D06E0E06840F00103BD
:1001800094E8070098471034AC42F6D3FFF7B2FF6B
:10019000781800089818000870B50446006881684F
:1001A000C943C90717D1816821F00101816000F0BE
:1001B000A5FC05460AE000BF00F0A0FC401B022899
:1001C00004D920688068C043C00706D020688068D2
:1001D000C043C007F0D0002070BDA06A40F01000FE
:1001E000A062E06A40F00100E062012070BD10B53D
:1001F0000146406A826A12F0500F05D0006A026B15
:10020000BDE8104008461047816A41F400718162E0
:1002100001688968C1F3424107290CD1017B51B9BA
:10022000816A21F480718162816AC90403D4816A80
:1002300041F00101816200F0EFF810BD10B5406A95
:10024000816A41F040018162C16A41F00401C162EA
:1002500000F0E4F810BD10B5406A00F0DEF810BD03
:10026000F8B500260446009600688168C943C907AE
:100270002DD0816841F0010181601648164900685F
:10028000B0FBF1F000E0401E00900028FBD100F030
:1002900035FC054616E000BF00F030FC401B02288C
:1002A00010D920688068C043C0070BD0A06A40F016
:1002B0001000A062E06A40F00100E06284F824606F
:1002C0000120F8BD20688068C043C007E4D1002049
:1002D000F8BD00001400002040420F00FEE70000BF
:1002E000014800F0F9B900004800002030B590F84E
:1002F00040500124AC40C56B6C6004686360436887
:10030000102B036803D099600068C26030BD9A600A
:100310000068C16030BD704770470000F8B5002428
:10032000009490F824202546012A12D0012280F85A
:1003300024204A681F23072A0DD20668776B521EB5
:1003400002EB820293409F430B6893401F43776305
:1003500019E00220F8BD06680D2A0AD2376BD21FB9
:1003600002EB820293409F430B6893401F43376325
:1003700009E0F76A0D3A02EB820293409F430B6853
:1003800093401F43F7620A68072306680A2A0AD3C4
:10039000F7680A3A02EB420293409F438B6893400E
:1003A0001F43F76008E0376902EB420293409F4326
:1003B0008B6893401F4337610A68102A01D0112AC5
:1003C00020D1124B02689A4217D193681B0219D4AC
:1003D000936843F4000393600968102912D10C4913
:1003E0000C4A0968B1FBF2F101EB8101490000E020
:1003F000491E00910029FBD104E0816A41F02001EF
:100400008162012480F824502046F8BD0024014078
:100410001400002040420F007047704770470000F2
:100420002DE9F0414FF0000704003D467ED0A06A60
:10043000002628B9E66284F82460204600F07EF8A1
:100440002046FFF7A9FEA16AC90600D420B1A06A20
:1004500040F01000A06269E0A16A21F4885141F0E7
:100460000201A1626268E169237B0A4347EA430112
:100470000A43A1684FF48077B94209D0012907D017
:100480005FF0000194F814C0BCF1010F02D00AE043
:100490003946F7E7F3B1A36A43F02003A362E36AA6
:1004A00043F00103E3622368D3F804C02CF4694CE1
:1004B0004CEA010CC3F804C021688B68DFF870C0F7
:1004C00003EA0C0313438B60A168B9420BD00129E6
:1004D00009D00CE0DFF85CC0A3690CEB43330B439D
:1004E00043F40061DFE7218A0D05A5F58015216839
:1004F000CB6A23F470032B43CB62216889680E4BCF
:100500001940914208D1E662A16A21F0020141F04E
:100510000101A162BDE8F081A06A20F0020040F074
:100520001000A062E06A40F00100E0620120F1E703
:10053000FDF7E1FF00E0FFFFFE0E1FFF70B586B084
:1005400000250646009501950295039500681A4915
:1005500088422ED11949886940F400708861886901
:1005600000F400700490886940F004008861886994
:10057000694600F0040004900120009003200190DF
:100580000F4800F0CBF9104C0E48C4E9000580205C
:10059000C4E9025040002061800060612020C4E96D
:1005A0000605204600F042F908B1FFF7B5FE3462B7
:1005B000666206B070BD00000024014000100240D9
:1005C0000008014008000240480000202DE9F047E3
:1005D000894604463B4900683B4F0E1D90468842C1
:1005E00001D0B84207D1306810F4702F03D0012534
:1005F0002846BDE8F08794F8240001280CD001209B
:1006000084F824002046FFF72BFE05004FF0000081
:1006100004D084F82400EBE70220EAE7A16A40F660
:100620000162914341F48071A1622168B94218D1FD
:10063000326812F4702F14D0A16A41F48011A162C3
:100640003168490505D5A16A21F4005141F4805172
:10065000A162A16AC9040AD5E16A21F00601E1623A
:1006600006E0A26A22F48012A2624968E9E7E06229
:1006700084F82400216A15488862216A1448C862F7
:10068000216A1448086321686FF00200086020683E
:10069000816841F480718160216843464A464C314B
:1006A000206A00F0F1F820688168C1F3424107290F
:1006B000816803D041F48011816099E741F4A00181
:1006C000FAE700000024014000280140EF01000883
:1006D000570200083D0200082DE9F05FC16B0C686D
:1006E00001680B68D0F840C0042202FA0CF2494DB0
:1006F000DFF824A1494E4A4FDFF828B1DFF828E19E
:1007000022422CD05A072AD50A68920603D40A68D6
:1007100022F004020A600168A94201D1042219E012
:10072000514501D1402215E0B14202D14FF480621F
:1007300010E0B94202D14FF480420BE0594502D19A
:100740004FF4802206E0714502D14FF4800201E0AF
:100750004FF080622F4908394A60C16A3BE04FF090
:10076000020808FA0CF818EA040F4FF000094FF0DD
:10077000010235D05FEA837832D50B689B0605D439
:100780000B6823F00A030B6080F821200168A9425E
:1007900001D1022219E0514501D1202215E0B142D8
:1007A00002D14FF4007210E0B94202D14FF400526E
:1007B0000BE0594502D14FF4003206E0714502D1F9
:1007C0004FF4001201E04FF00072124908394A60FC
:1007D00080F82090816A00291AD0BDE8F05F0847B0
:1007E000082505FA0CF5254212D01B0710D50B6819
:1007F00023F00E030B6090F84010C36B02FA01F176
:100800005960826380F8212080F82090016BE2E734
:10081000BDE8F09F080002401C000240300002408A
:1008200044000240580002406C00024030B528B33A
:1008300008C8134914221944B1FBF2F18900C163BD
:1008400010498163022141771A6843F6F0718A43A7
:10085000D0E900142143D0E902452C432143046927
:1008600021434469214384692143114319600021D4
:100870004163012242770177084630BD012030BD37
:10088000F8FFFDBF0000024070B5044690F820005C
:10089000002501280CD0012084F8200094F8216064
:1008A0000020012E06D084F820000225284670BDC5
:1008B000022070BD022684F82160A06320680668CB
:1008C00026F0010606602046FFF710FDE06A0028CA
:1008D0002068016802D041F00E0106E021F0040119
:1008E00001602068016841F00A0101602068016828
:1008F00041F001010160D9E770B5044600F0FEF84F
:100900000546601C02D004480078044400F0F6F864
:10091000401BA042FAD370BD080000202DE9F84F1B
:10092000DFF8B891002409F1040A0AF1040B234608
:100930000F270BF1040EC9E00125A5402A40AA4269
:100940007DD1674ED1F804C0ACEB0608B44532D077
:1009500014DCBCF1030F3AD009DCBCF1000F2AD043
:10096000BCF1010F1CD0BCF1020F31D11DE0BCF174
:10097000110F17D0BCF1120F2AD119E0B8F5881F5A
:1009800019D006DCB8F5803F15D0B8F5801F1FD10F
:1009900011E0B8F5001F0ED0B8F5041F18D10AE019
:1009A000CB6815E0CB681B1D12E0CB6808330FE065
:1009B000CB680C330CE08B682BB1012B4FF0080394
:1009C00003D0456104E0042302E0056100E0002358
:1009D000FF2A01D8064601E000F104064FEA84052B
:1009E00001D9A5F12005D6F8008007FA05FC28EA10
:1009F0000C0803FA05F548EA0508C6F800804D68BA
:100A0000ED0062D5374DAE6946F00106AE61AD69C5
:100A100024F0030605F001050095334D06EB050CA7
:100A2000DCF80850A607360F07FA06F825EA08058D
:100A3000DFF8B880404503D14FF0000817E044E0EC
:100A4000DFF8AC80404502D14FF001080FE0DFF83D
:100A5000A480404502D14FF0020808E0DFF89880FA
:100A6000404502D14FF0030801E04FF0040808FAB6
:100A700006F848EA0508CCF808804D68D9F8006007
:100A8000ED034D4601D5164300E096432E604D68B8
:100A9000DAF80060AD03554601D5164300E09643F1
:100AA0002E604D68DBF80060ED025D4601D516430F
:100AB00000E096432E604D68DEF80060AD0275469A
:100AC00001D5164300E096432E60641C0D682A464B
:100AD000E5407FF431AFBDE8F88F0000000401402D
:100AE0000000111000100240000001400008014009
:100AF000000C0140001001400014014001488068D2
:100B00007047000008000020024881680278114404
:100B10008160704708000020074810B5016841F067
:100B200010010160032000F075F8002000F006F8C5
:100B300000F024F8002010BD0020024070B50D4DDB
:100B400004464FF47A712878B1FBF0F00A4909683D
:100B5000B1FBF0F000F062FB48B9102C07D2002284
:100B60002146501E00F036F800206C6070BD012058
:100B700070BD000008000020140000200C4808B5DB
:100B8000816941F001018161816901F001010091F8
:100B9000C16941F08051C161C06900F0805000908E
:100BA0000448416821F0E06141F00071416008BDF6
:100BB0000010024000000140002809DB00F01F0285
:100BC000012191404009800000F1E020C0F80011AF
:100BD00070470000F0B40E4B1B680C46C3F30223B1
:100BE000C3F10705042D00D90425191D072901D2D9
:100BF000002300E0DB1E012606FA05F1491E214014
:100C000099409E40761E16403143F0BC00F02EBD48
:100C10000CED00E0064900F0070208684FF6FF03FC
:100C2000184040EA0220034A104308607047000061
:100C30000CED00E00000FA052DE9F84305460078C8
:100C4000354CC00754D0E0690026C00008D4E069E4
:100C500040F08050E061E069012600F08050009093
:100C60002E480168C90512D40168804641F480719C
:100C70000160FFF743FF074605E000BFFFF73EFFB7
:100C8000C01B642823D8D8F80000C005F6D5206A18
:100C900010F4407021D0A98801F4407181421CD029
:100CA000206A1F49012220F440700A6000220A6075
:100CB0002062C00711D0FFF721FF074641F28838B4
:100CC00008E000BFFFF71AFFC11B414502D903200E
:100CD000BDE8F883206A8007F4D5206A696820F4AB
:100CE0004070084320621EB1E06920F08050E0614E
:100CF0002878800705D56068A96820F4404008433B
:100D000060602878C00605D56068E96820F4800036
:100D1000084360600020DBE70010024000700040E4
:100D2000400442422DE9F0470F46050061D0434E92
:100D3000306800F00700B84209D2306820F00700A0
:100D400038433060306800F00700B84251D128685D
:100D50003B4C810712D5400703D5606840F4E06042
:100D600060602878000703D5606840F460506060D8
:100D70006068A96820F0F000084360602878C00728
:100D800028D06868012810D02168022810D089076F
:100D900000292EDA616821F0030101436160FFF749
:100DA000ADFE804641F288390DE021688903EFE706
:100DB0008901EDE7FFF7A2FEA0EB0801494502D942
:100DC0000320BDE8F0876068696800F00C00B0EBB4
:100DD000810FEFD1306800F00700B8420BD93068BE
:100DE00020F0070038433060306800F00700B84258
:100DF00001D00120E5E72878400705D56068E9685B
:100E000020F4E060084360602878000706D5606839
:100E1000296920F4605040EAC100606000F038F8B1
:100E20006168084AC1F30311515CC8400649086073
:100E300006480068FFF782FE0020C2E7002002405B
:100E40000010024060180008140000200C00002070
:100E50000448054900684968044AC1F30221515C0D
:100E6000C8407047140000200010024070180008AD
:100E70000448054900684968044AC1F3C221515C2D
:100E8000C84070471400002000100240701800088D
:100E900012A185B00FC98DE80F0014A0144A006894
:100EA00004905168134801F00C03042B10D0082B58
:100EB0000ED1C1F38343C9031DF803000AD551685D
:100EC00004AAC1F34041515C0A4A5043B0FBF1F01F
:100ED00005B0704708494843FAE7000002030405DB
:100EE000060708090A0B0C0D0E0F10100102000076
:100EF0000010024000127A0000093D002DE9F84F71
:100F0000040070D02078C04DC00749D06868C0F395
:100F10008100012807D06868C0F38100022809D148
:100F20006868C00306D52868800339D56068002842
:100F3000E7D035E06068B0F5803F0BD010B1B0F578
:100F4000A02F11D0286820F480302860286820F471
:100F5000802002E0286840F480302860606890B10A
:100F6000FFF7CCFD06460AE0286840F480202860A0
:100F7000F0E700BFFFF7C2FD801B642873D8286824
:100F80008003F7D50CE0FFF7B9FD064605E000BF8A
:100F9000FFF7B4FD801B6428F0D828688003F7D4DD
:100FA00020789A4E80074FF001094FF0000839D59C
:100FB000686810F00C0F07D06868C0F38100022841
:100FC00009D16868C00306D42868800714D5206951
:100FD000012808D110E02069B0B1C6F80090FFF7F1
:100FE0008DFD074605E00AE1FFF788FDC01B0228DA
:100FF000C4D828688007F7D52868616920F0F80010
:1010000040EAC10028600DE0C6F80080FFF776FDD9
:10101000074604E0FFF772FDC01B022823D82868AA
:101020008007F7D4207800072CD57948A169D9B179
:10103000C0F80090FFF762FD074604E0FFF75EFD91
:10104000C01B02280FD8686A8007F7D571484FF493
:10105000FA510068B0FBF1F0009000BF0098411E0B
:101060000091FAD20EE080E0C0F80080FFF746FD64
:10107000074604E0FFF742FDC01B022875D8686AE6
:101080008007F7D42078400760D5E8690027C000C2
:1010900008D4E86940F08050E861E869012700F071
:1010A000805000905C480168C90513D401688346EC
:1010B00041F480710160FFF721FD824606E000BF28
:1010C000FFF71CFDA0EB0A0064284ED8DBF80000F7
:1010D000C005F5D5E06801280AD008B1052813D06D
:1010E000286A20F001002862286A20F0040002E04B
:1010F000286A40F001002862E06841F2883B98B11C
:10110000FFF7FCFC82460BE0286A40F004002862EE
:10111000EEE700BFFFF7F2FCA0EB0A0159455AD8F1
:10112000286A8007F6D50CE0FFF7E8FC824605E068
:10113000FFF7E4FCA0EB0A0159454CD8286A800768
:10114000F6D41FB1E86920F08050E861E06988B307
:101150006968C1F38101022944D00228C6F8608081
:1011600004D0FFF7CBFC044638E034E0FFF7C6FCC0
:10117000074604E0FFF7C2FCC01B02282BD82868F2
:101180008001F7D4206AB0F5803F05D16868A16876
:1011900020F4003008436860D4E908010843696816
:1011A00021F4741108436860C6F86090FFF7A6FC4C
:1011B000044606E025E000BFFFF7A0FC001B022864
:1011C00009D828688001F7D51BE000BFFFF796FC1F
:1011D000001B022802D90320BDE8F88F286880018F
:1011E000F4D40EE00128F7D06868226A00F4803158
:1011F000914204D1616A00F47010884201D001204C
:10120000EAE70020E8E70000001002400000424248
:1012100080044242140000200070004010B5401EBF
:10122000B0F1807F01D3012010BD4FF0E024606158
:101230000F21601700F01AFA0020A061072020613A
:10124000002010BD70B5040004D094F83D000025C6
:1012500010B106E0012070BD84F83C50204600F03B
:1012600023F8242084F83D002068C16821F400514F
:10127000C160204600F05AF92068016921F49041CC
:1012800001612068416921F02A0141612068C1683B
:1012900041F40051C1602564202084F83D0084F8A9
:1012A0003E00002070BD000030B585B000240094E1
:1012B00001940294039400681449884224D114488C
:1012C000C16941F48021C161C16901F480210491A7
:1012D000816941F00801816180690E4D00F00800CC
:1012E00004904FF48060009002200190032003904E
:1012F00069462846FFF712FBE814CDE90004694669
:1013000028460294FFF70AFB05B030BD00480040B4
:1013100000100240000C01402DE9F843044690F80B
:101320003D001F4616460D4620284CD1C5B1BEB122
:1013300094F83C00012846D0012084F83C004FF08E
:101340000008C4F84080212084F83D00FFF7D6FB58
:10135000A6848146E684A068B0F5805F03D004E0EF
:101360000120BDE8F883206928B12E465FF0000512
:1013700084F83C800EE00026FAE78021204600F049
:1013800031F9A0B9AEB116F8010B21684860E08CC4
:10139000401EE084E08C4B464FF00002009700288E
:1013A000EBD14FF04001204600F01CF930B1032092
:1013B000D7E735F8020BC0F30800E6E7202084F8F1
:1013C0003D000020CDE70220CBE7FEE73EB500243C
:1013D00011480094019402940E4984600160012533
:1013E0000573047505614FF460214460C161FFF726
:1013F00017F808B1FEF790FF06200094CDE90150E0
:1014000069460548FEF78AFF002801D0FEF784FFF1
:101410003EBD00000024014018000020094808B526
:10142000416941F0010141614069002200F0010081
:10143000009011460B20FFF7CDFBBDE808400B20C4
:10144000FFF7BABB001002400D4808B5816941F0B2
:1014500020018161816901F020010091816941F0E1
:1014600004018161816901F004010091816941F009
:1014700008018161806900F00800009008BD00004B
:10148000001002400C4810B50A4901604FF4E131E8
:101490004160002181600C22C160C0E904128161B9
:1014A000C161FFF7CFFE002803D0BDE81040FEF772
:1014B00033BF10BD004800408C000020FEE770479D
:1014C00070477047FFF720BB30B593B028216846BE
:1014D000FEF72FFE14210AA8FEF72BFE00240120A0
:1014E0000F9410941194010412948DE81300049049
:1014F0004FF4E010CDE90810022507956846FFF784
:10150000FDFC0F20CDE90A056802CDE90C4002215F
:101510000AA80E94FFF706FCA80311900F950FA8D8
:10152000FFF78AFB13B030BD7047000070B504466A
:1015300000680169E26821F44051114301612169A9
:10154000A0680843616908432168CA6841F20C63D6
:101550009A430243CA6020684169A26921F440713C
:10156000114341611E492068884202D1FFF780FC87
:1015700001E0FFF76DFC00EBC00101EB00126068B9
:1015800064218000B2FBF0F3B3FBF1F36FF01806B7
:101590007343B2FBF0F5B2FBF0F605EB83053223A3
:1015A00003EB0515B5FBF1F5B6FBF1F605F0F0051B
:1015B00005EB0615B2FBF0F6B2FBF0F0B0FBF1F074
:1015C0006FF01802504306EB800003EB0010B0FBF5
:1015D000F1F0216800F00F002844886070BD000021
:1015E000003801402DE9F041984617460E46044662
:1015F000069D1DE0681C1BD02DB1FFF77FFAA0EB04
:101600000800A84214D92068C16821F4D071C160D3
:101610002068416921F001014161202084F83D00EA
:1016200084F83E00002084F83C000320BDE8F081EF
:101630002068006836EA000004D00020B842D9D003
:101640000020F3E70120F9E7FEE700000FB4054BA7
:1016500010B503A9044A029800F028F810BC5DF800
:1016600014FB000001180008040000200907090EFF
:10167000002804DB00F1E02080F80014704700F03F
:101680000F0000F1E02080F8141D704702E008C848
:10169000121F08C1002AFAD170477047002001E0EC
:1016A00001C1121F002AFBD1704700002DE9FF4F36
:1016B00089B09B460446002506E025280BD05A46F3
:1016C0000B999047641C6D1C20780028F5D10DB053
:1016D0002846BDE8F08F0027B8460122474900E0C0
:1016E000074314F8013F203B02FA03F00842F7D108
:1016F00020782E2819D114F8010F47F004072A2862
:101700000ED06FF02F022078A0F1300109290CD8FB
:1017100008EB880102EB410100EB0108641CF2E7D1
:101720000A98641C50F8048B0A9020780028CED0C8
:10173000642808D0692806D075281ED05A460B990F
:1017400090476D1C58E00A994FF00A0901C90A91A7
:10175000002802DA40422D2102E0390504D52B2170
:101760008DF82010012103E0F90704D02021F7E7CC
:101770008A4608AE0DE00021FAE70A994FF00A09FF
:1017800001C90A91F7E74946FEF7DEFC303106F859
:10179000011D0028F7D1ADEB060000F12009780704
:1017A00001D44FF00108C84502DDA8EB090000E0B4
:1017B00000208046002706E008A85A46C05D0B9925
:1017C00090476D1C7F1C5745F6DB04E030205A46DD
:1017D0000B9990476D1CB8F10001A8F10108F5DCE8
:1017E00005E016F8010B5A460B9990476D1CB9F1AC
:1017F0000001A9F10109F4DC641C65E70928010076
:1018000013B54FF6FF73012269460248FFF784FDC6
:1018100000981CBD8C000020FFF77EF9FFF754FEF6
:10182000FFF712FEFFF7FAFDFFF7D0FDFFF72AFEE4
:10183000012206490648FEF7C9FE044C05A02168AE
:10184000FFF704FF6420FFF757F8F7E700000020D8
:10185000180000207661723A2025640D0A0000000D
:101860000000000000000000010203040607080950
:101870000000000001020304981800080000002086
:10188000180000008C160008B0180008180000208E
:10189000B80400009C1600080000000000000000D2
:1018A0000100000010000000000000000024F4000F
:04000005080000ED02
:00000001FF
